{
  "abi": [
    {
      "inputs": [
        {
          "internalType": "string",
          "name": "_tokenName",
          "type": "string"
        },
        {
          "internalType": "string",
          "name": "_tokenSymbol",
          "type": "string"
        },
        {
          "internalType": "uint8",
          "name": "_decimals",
          "type": "uint8"
        },
        {
          "internalType": "address",
          "name": "_certifier",
          "type": "address"
        },
        {
          "internalType": "address",
          "name": "_priceFeed",
          "type": "address"
        }
      ],
      "stateMutability": "nonpayable",
      "type": "constructor"
    },
    {
      "inputs": [
        {
          "internalType": "uint256",
          "name": "_amount",
          "type": "uint256"
        }
      ],
      "name": "InsufficientAmount",
      "type": "error"
    },
    {
      "anonymous": false,
      "inputs": [
        {
          "indexed": true,
          "internalType": "address",
          "name": "owner",
          "type": "address"
        },
        {
          "indexed": true,
          "internalType": "address",
          "name": "spender",
          "type": "address"
        },
        {
          "indexed": false,
          "internalType": "uint256",
          "name": "value",
          "type": "uint256"
        }
      ],
      "name": "Approval",
      "type": "event"
    },
    {
      "anonymous": false,
      "inputs": [
        {
          "indexed": false,
          "internalType": "address",
          "name": "_sender",
          "type": "address"
        },
        {
          "indexed": false,
          "internalType": "uint256",
          "name": "_amount",
          "type": "uint256"
        }
      ],
      "name": "Retire",
      "type": "event"
    },
    {
      "anonymous": false,
      "inputs": [
        {
          "indexed": true,
          "internalType": "bytes32",
          "name": "role",
          "type": "bytes32"
        },
        {
          "indexed": true,
          "internalType": "bytes32",
          "name": "previousAdminRole",
          "type": "bytes32"
        },
        {
          "indexed": true,
          "internalType": "bytes32",
          "name": "newAdminRole",
          "type": "bytes32"
        }
      ],
      "name": "RoleAdminChanged",
      "type": "event"
    },
    {
      "anonymous": false,
      "inputs": [
        {
          "indexed": true,
          "internalType": "bytes32",
          "name": "role",
          "type": "bytes32"
        },
        {
          "indexed": true,
          "internalType": "address",
          "name": "account",
          "type": "address"
        },
        {
          "indexed": true,
          "internalType": "address",
          "name": "sender",
          "type": "address"
        }
      ],
      "name": "RoleGranted",
      "type": "event"
    },
    {
      "anonymous": false,
      "inputs": [
        {
          "indexed": true,
          "internalType": "bytes32",
          "name": "role",
          "type": "bytes32"
        },
        {
          "indexed": true,
          "internalType": "address",
          "name": "account",
          "type": "address"
        },
        {
          "indexed": true,
          "internalType": "address",
          "name": "sender",
          "type": "address"
        }
      ],
      "name": "RoleRevoked",
      "type": "event"
    },
    {
      "anonymous": false,
      "inputs": [
        {
          "indexed": true,
          "internalType": "address",
          "name": "from",
          "type": "address"
        },
        {
          "indexed": true,
          "internalType": "address",
          "name": "to",
          "type": "address"
        },
        {
          "indexed": false,
          "internalType": "uint256",
          "name": "value",
          "type": "uint256"
        }
      ],
      "name": "Transfer",
      "type": "event"
    },
    {
      "inputs": [],
      "name": "DEFAULT_ADMIN_ROLE",
      "outputs": [
        {
          "internalType": "bytes32",
          "name": "",
          "type": "bytes32"
        }
      ],
      "stateMutability": "view",
      "type": "function"
    },
    {
      "inputs": [
        {
          "internalType": "address",
          "name": "owner",
          "type": "address"
        },
        {
          "internalType": "address",
          "name": "spender",
          "type": "address"
        }
      ],
      "name": "allowance",
      "outputs": [
        {
          "internalType": "uint256",
          "name": "",
          "type": "uint256"
        }
      ],
      "stateMutability": "view",
      "type": "function"
    },
    {
      "inputs": [
        {
          "internalType": "address",
          "name": "spender",
          "type": "address"
        },
        {
          "internalType": "uint256",
          "name": "amount",
          "type": "uint256"
        }
      ],
      "name": "approve",
      "outputs": [
        {
          "internalType": "bool",
          "name": "",
          "type": "bool"
        }
      ],
      "stateMutability": "nonpayable",
      "type": "function"
    },
    {
      "inputs": [
        {
          "internalType": "address",
          "name": "account",
          "type": "address"
        }
      ],
      "name": "balanceOf",
      "outputs": [
        {
          "internalType": "uint256",
          "name": "",
          "type": "uint256"
        }
      ],
      "stateMutability": "view",
      "type": "function"
    },
    {
      "inputs": [],
      "name": "decimals",
      "outputs": [
        {
          "internalType": "uint8",
          "name": "",
          "type": "uint8"
        }
      ],
      "stateMutability": "pure",
      "type": "function"
    },
    {
      "inputs": [
        {
          "internalType": "address",
          "name": "spender",
          "type": "address"
        },
        {
          "internalType": "uint256",
          "name": "subtractedValue",
          "type": "uint256"
        }
      ],
      "name": "decreaseAllowance",
      "outputs": [
        {
          "internalType": "bool",
          "name": "",
          "type": "bool"
        }
      ],
      "stateMutability": "nonpayable",
      "type": "function"
    },
    {
      "inputs": [
        {
          "internalType": "bytes32",
          "name": "role",
          "type": "bytes32"
        }
      ],
      "name": "getRoleAdmin",
      "outputs": [
        {
          "internalType": "bytes32",
          "name": "",
          "type": "bytes32"
        }
      ],
      "stateMutability": "view",
      "type": "function"
    },
    {
      "inputs": [
        {
          "internalType": "bytes32",
          "name": "role",
          "type": "bytes32"
        },
        {
          "internalType": "address",
          "name": "account",
          "type": "address"
        }
      ],
      "name": "grantRole",
      "outputs": [],
      "stateMutability": "nonpayable",
      "type": "function"
    },
    {
      "inputs": [
        {
          "internalType": "bytes32",
          "name": "role",
          "type": "bytes32"
        },
        {
          "internalType": "address",
          "name": "account",
          "type": "address"
        }
      ],
      "name": "hasRole",
      "outputs": [
        {
          "internalType": "bool",
          "name": "",
          "type": "bool"
        }
      ],
      "stateMutability": "view",
      "type": "function"
    },
    {
      "inputs": [
        {
          "internalType": "address",
          "name": "spender",
          "type": "address"
        },
        {
          "internalType": "uint256",
          "name": "addedValue",
          "type": "uint256"
        }
      ],
      "name": "increaseAllowance",
      "outputs": [
        {
          "internalType": "bool",
          "name": "",
          "type": "bool"
        }
      ],
      "stateMutability": "nonpayable",
      "type": "function"
    },
    {
      "inputs": [
        {
          "internalType": "address",
          "name": "_to",
          "type": "address"
        },
        {
          "internalType": "uint256",
          "name": "_amount",
          "type": "uint256"
        }
      ],
      "name": "mint",
      "outputs": [],
      "stateMutability": "nonpayable",
      "type": "function"
    },
    {
      "inputs": [],
      "name": "name",
      "outputs": [
        {
          "internalType": "string",
          "name": "",
          "type": "string"
        }
      ],
      "stateMutability": "view",
      "type": "function"
    },
    {
      "inputs": [],
      "name": "quoteParity",
      "outputs": [
        {
          "internalType": "int256",
          "name": "",
          "type": "int256"
        }
      ],
      "stateMutability": "view",
      "type": "function"
    },
    {
      "inputs": [
        {
          "internalType": "bytes32",
          "name": "role",
          "type": "bytes32"
        },
        {
          "internalType": "address",
          "name": "account",
          "type": "address"
        }
      ],
      "name": "renounceRole",
      "outputs": [],
      "stateMutability": "nonpayable",
      "type": "function"
    },
    {
      "inputs": [
        {
          "internalType": "uint256",
          "name": "_amount",
          "type": "uint256"
        }
      ],
      "name": "retire",
      "outputs": [],
      "stateMutability": "nonpayable",
      "type": "function"
    },
    {
      "inputs": [
        {
          "internalType": "bytes32",
          "name": "role",
          "type": "bytes32"
        },
        {
          "internalType": "address",
          "name": "account",
          "type": "address"
        }
      ],
      "name": "revokeRole",
      "outputs": [],
      "stateMutability": "nonpayable",
      "type": "function"
    },
    {
      "inputs": [
        {
          "internalType": "bytes4",
          "name": "interfaceId",
          "type": "bytes4"
        }
      ],
      "name": "supportsInterface",
      "outputs": [
        {
          "internalType": "bool",
          "name": "",
          "type": "bool"
        }
      ],
      "stateMutability": "view",
      "type": "function"
    },
    {
      "inputs": [],
      "name": "symbol",
      "outputs": [
        {
          "internalType": "string",
          "name": "",
          "type": "string"
        }
      ],
      "stateMutability": "view",
      "type": "function"
    },
    {
      "inputs": [],
      "name": "token",
      "outputs": [
        {
          "internalType": "uint256",
          "name": "decimals",
          "type": "uint256"
        },
        {
          "internalType": "address",
          "name": "parityRouter",
          "type": "address"
        }
      ],
      "stateMutability": "view",
      "type": "function"
    },
    {
      "inputs": [],
      "name": "totalSupply",
      "outputs": [
        {
          "internalType": "uint256",
          "name": "",
          "type": "uint256"
        }
      ],
      "stateMutability": "view",
      "type": "function"
    },
    {
      "inputs": [
        {
          "internalType": "address",
          "name": "to",
          "type": "address"
        },
        {
          "internalType": "uint256",
          "name": "amount",
          "type": "uint256"
        }
      ],
      "name": "transfer",
      "outputs": [
        {
          "internalType": "bool",
          "name": "",
          "type": "bool"
        }
      ],
      "stateMutability": "nonpayable",
      "type": "function"
    },
    {
      "inputs": [
        {
          "internalType": "address",
          "name": "from",
          "type": "address"
        },
        {
          "internalType": "address",
          "name": "to",
          "type": "address"
        },
        {
          "internalType": "uint256",
          "name": "amount",
          "type": "uint256"
        }
      ],
      "name": "transferFrom",
      "outputs": [
        {
          "internalType": "bool",
          "name": "",
          "type": "bool"
        }
      ],
      "stateMutability": "nonpayable",
      "type": "function"
    }
  ],
  "bytecode": {
    "object": "0x60406080815234620003ff5762001915803803806200001e8162000404565b928339810160a082820312620003ff5781516001600160401b039190828111620003ff5781620000509185016200042a565b916020918285015190828211620003ff576200006e9186016200042a565b858501519060ff8216809203620003ff576200009b608062000093606089016200049c565b97016200049c565b928551818111620003e9576004928354916001988984811c94168015620003de575b89851014620003c9578190601f9485811162000373575b5089908583116001146200030b57600092620002ff575b5050600019600383901b1c191690891b1784555b8051928311620002ea576005938454908982811c92168015620002df575b89831014620002ca57509081838594931162000274575b50879183116001146200020c5760009262000200575b5050600019600383901b1c191690861b1790555b600655600780546001600160a01b0319166001600160a01b039283161790556000808052808352858120949091168082529382528490205460ff1615620001af575b83516114639081620004b28239f35b600080526000815283600020908360005252826000209060ff19825416179055339060007f2f8788117e7eff1d82e926ec794901d17c78024a50270940304540a733656f0d8180a4388080620001a0565b0151905038806200014a565b90889350601f1983169185600052886000209260005b8a8282106200025d575050841162000243575b505050811b0190556200015e565b015160001960f88460031b161c1916905538808062000235565b8385015186558c9790950194938401930162000222565b90919250846000528760002083808601871c8201928a8710620002c0575b9186958c9295949301881c01915b828110620002b057505062000134565b600081558695508b9101620002a0565b9250819262000292565b602290634e487b7160e01b6000525260246000fd5b91607f16916200011d565b604184634e487b7160e01b6000525260246000fd5b015190503880620000eb565b908b9350601f19831691886000528b6000209260005b8d8282106200035c575050841162000342575b505050811b018455620000ff565b015160001960f88460031b161c1916905538808062000334565b8385015186558f9790950194938401930162000321565b90915086600052896000208580850160051c8201928c8610620003bf575b918d91869594930160051c01915b828110620003af575050620000d4565b600081558594508d91016200039f565b9250819262000391565b602286634e487b7160e01b6000525260246000fd5b93607f1693620000bd565b634e487b7160e01b600052604160045260246000fd5b600080fd5b6040519190601f01601f191682016001600160401b03811183821017620003e957604052565b919080601f84011215620003ff5782516001600160401b038111620003e95760209062000460601f8201601f1916830162000404565b92818452828287010111620003ff5760005b8181106200048857508260009394955001015290565b858101830151848201840152820162000472565b51906001600160a01b0382168203620003ff5756fe60806040908082526004908136101561001757600080fd5b600091823560e01c91826301ffc9a714610d045750816306fdde0314610c0f578163095ea7b314610be557816318160ddd14610bc657816323b872dd14610afb578163248a9ca314610ad05781632d15a56714610a1c5781632f2ff15d14610972578163313ce5671461095657816336568abe146108c55781633790cf571461075b578163395093511461070b57816340c10f191461044957816370a082311461041157816391d14854146103ca57816395d89b41146102c7578163a217fddf146102ac578163a457c2d714610207578163a9059cbb146101d6578163d547741f1461019457508063dd62ed3e146101475763fc0c546a1461011857600080fd5b346101445780600319360112610144575060065460075482519182526001600160a01b03166020820152f35b80fd5b50903461019057806003193601126101905780602092610165610da6565b61016d610dc1565b6001600160a01b0391821683526002865283832091168252845220549051908152f35b5080fd5b905082346101d257806003193601126101d2576101cf91356101ca60016101b9610dc1565b938387528660205286200154610dd7565b610fd7565b80f35b8280fd5b8284346101905780600319360112610190576020906102006101f6610da6565b602435903361106e565b5160018152f35b91905034610144578260031936011261014457610222610da6565b918360243592338152600260205281812060018060a01b038616825260205220549082821061025b5760208561020085850387336111de565b608490602086519162461bcd60e51b8352820152602560248201527f45524332303a2064656372656173656420616c6c6f77616e63652062656c6f77604482015264207a65726f60d81b6064820152fd5b82843461019057816003193601126101905751908152602090f35b905082346101d257826003193601126101d257805191836005549060019082821c9282811680156103c0575b60209586861082146103ad575084885290811561038b5750600114610332575b61032e8686610324828b0383610fb5565b5191829182610d7a565b0390f35b929550600583527f036b6384b5eca791c62761152d0c79bb0604c104a5fb6f4eb0703f3154bb3db05b828410610378575050508261032e94610324928201019486610313565b805486850188015292860192810161035b565b60ff191687860152505050151560051b83010192506103248261032e86610313565b634e487b7160e01b845260229052602483fd5b93607f16936102f3565b839150346101d257816003193601126101d2578160209360ff926103ec610dc1565b903582528186528282206001600160a01b039091168252855220549151911615158152f35b8284346101905760203660031901126101905760209181906001600160a01b03610439610da6565b1681526001845220549051908152f35b839150346101d257816003193601126101d257610464610da6565b906024928335917f9f2df0fed2c77648de5860a4cc508cd0818c85b8b8a1ab4ceeef8d981c8956a693848752602094878652838820338952865260ff84892054161561054957506001600160a01b0316948515610509575050918185936104ee7fddf252ad1be2c89b69c2b068fc378daa952ba7f163c4a11628f55a4df523b3ef9460035461104b565b6003558585526001835280852082815401905551908152a380f35b601f9085606494519362461bcd60e51b85528401528201527f45524332303a206d696e7420746f20746865207a65726f2061646472657373006044820152fd5b85915086889161055833611307565b909186519261056684610f83565b604284528584019460603687378451156106f957603086538451906001918210156106e75790607860218701536041915b81831161067e5750505061063d5750610639938693610625936106166048946105ed9a519a8576020b1b1b2b9b9a1b7b73a3937b61d1030b1b1b7bab73a1604d1b8d978801528251928391603789019101610d57565b8401917001034b99036b4b9b9b4b733903937b6329607d1b603784015251809386840190610d57565b01036028810187520185610fb5565b5162461bcd60e51b81529283928301610d7a565b0390fd5b9250505081606494519362461bcd60e51b85528401528201527f537472696e67733a20686578206c656e67746820696e73756666696369656e746044820152fd5b909192600f811660108110156106d5576f181899199a1a9b1b9c1cb0b131b232b360811b901a6106ae85896112e0565b53891c9280156106c357600019019190610597565b634e487b7160e01b825260118a528482fd5b634e487b7160e01b835260328b528583fd5b634e487b7160e01b8152603289528390fd5b634e487b7160e01b8152603288529050fd5b82843461019057806003193601126101905761020060209261075461072e610da6565b338352600286528483206001600160a01b0382168452865291849020546024359061104b565b90336111de565b8284346101905760209182600319360112610144578335923382526001815283838320541060001461079e5782516377b8dde360e01b8152808601859052602490fd5b909233156108785733845260018252828420549481861061082a5750807f82b89ed824b293574a2cca050e6e27837b60436d911352f8dca203a9cd35241c949533875260018452038386205580600354036003558483518281527fddf252ad1be2c89b69c2b068fc378daa952ba7f163c4a11628f55a4df523b3ef843392a3825191338352820152a180f35b835162461bcd60e51b8152908101839052602260248201527f45524332303a206275726e20616d6f756e7420657863656564732062616c616e604482015261636560f01b6064820152608490fd5b825162461bcd60e51b8152808601839052602160248201527f45524332303a206275726e2066726f6d20746865207a65726f206164647265736044820152607360f81b6064820152608490fd5b9050346101905782600319360112610190576108df610dc1565b90336001600160a01b038316036108fb57906101cf9135610fd7565b608490602085519162461bcd60e51b8352820152602f60248201527f416363657373436f6e74726f6c3a2063616e206f6e6c792072656e6f756e636560448201526e103937b632b9903337b91039b2b63360891b6064820152fd5b8284346101905781600319360112610190576020905160028152f35b839150346101d257816003193601126101d257359061098f610dc1565b90828452836020526109a660018286200154610dd7565b82845260208481528185206001600160a01b039093168086529290528084205460ff16156109d2578380f35b828452836020528084208285526020528320600160ff1982541617905533917f2f8788117e7eff1d82e926ec794901d17c78024a50270940304540a733656f0d8480a48180808380f35b839150346101d257826003193601126101d2576007548251633fabe5a360e21b81529160a09183919082906001600160a01b03165afa928315610ac5578093610a70575b6020846305f5e100855191058152f35b90925060a0833d8211610abd575b81610a8b60a09383610fb5565b8101031261014457506305f5e10082610aa5602094611416565b50610ab66080858301519201611416565b5092610a60565b3d9150610a7e565b8251903d90823e3d90fd5b839150346101d25760203660031901126101d257816020936001923581528085522001549051908152f35b90503461019057606036600319011261019057610b16610da6565b610b1e610dc1565b6001600160a01b03821684526002602090815285852033865290529284902054604435939260018201610b5a575b60208661020087878761106e565b848210610b835750918391610b7860209695610200950333836111de565b919394819350610b4c565b606490602087519162461bcd60e51b8352820152601d60248201527f45524332303a20696e73756666696369656e7420616c6c6f77616e63650000006044820152fd5b8284346101905781600319360112610190576020906003549051908152f35b828434610190578060031936011261019057602090610200610c05610da6565b60243590336111de565b828434610190578160031936011261019057805191809380549160019083821c92828516948515610cfa575b6020958686108114610ce757858952908115610cc35750600114610c6b575b61032e8787610324828c0383610fb5565b81529295507f8a35acfbc15ff81a39ae7d344fd709f28e8600b4aa8c65c6b64bfe7fe36bd19b5b828410610cb0575050508261032e9461032492820101948680610c5a565b8054868501880152928601928101610c92565b60ff19168887015250505050151560051b83010192506103248261032e8680610c5a565b634e487b7160e01b845260228352602484fd5b93607f1693610c3b565b9150346101d25760203660031901126101d2573563ffffffff60e01b81168091036101d25760209250637965db0b60e01b8114908115610d46575b5015158152f35b6301ffc9a760e01b14905083610d3f565b60005b838110610d6a5750506000910152565b8181015183820152602001610d5a565b60409160208252610d9a8151809281602086015260208686019101610d57565b601f01601f1916010190565b600435906001600160a01b0382168203610dbc57565b600080fd5b602435906001600160a01b0382168203610dbc57565b6000818152602090808252604092838220338352835260ff848320541615610dff5750505050565b610e0833611307565b845191610e1483610f83565b60428352848301936060368637835115610f6f5760308553835190600191821015610f6f5790607860218601536041915b818311610f0157505050610ebf576105ed938593610ea993610e9a6048946106399951988576020b1b1b2b9b9a1b7b73a3937b61d1030b1b1b7bab73a1604d1b8b978801528251928391603789019101610d57565b01036028810185520183610fb5565b5162461bcd60e51b815291829160048301610d7a565b60648486519062461bcd60e51b825280600483015260248201527f537472696e67733a20686578206c656e67746820696e73756666696369656e746044820152fd5b909192600f81166010811015610f5b576f181899199a1a9b1b9c1cb0b131b232b360811b901a610f3185886112e0565b5360041c928015610f4757600019019190610e45565b634e487b7160e01b82526011600452602482fd5b634e487b7160e01b83526032600452602483fd5b634e487b7160e01b81526032600452602490fd5b6080810190811067ffffffffffffffff821117610f9f57604052565b634e487b7160e01b600052604160045260246000fd5b90601f8019910116810190811067ffffffffffffffff821117610f9f57604052565b9060009180835282602052604083209160018060a01b03169182845260205260ff60408420541661100757505050565b80835282602052604083208284526020526040832060ff1981541690557ff6391f5c32d9c69d2a47ea670b442974b53935d1edc7fd64eb21e047a839171b339380a4565b9190820180921161105857565b634e487b7160e01b600052601160045260246000fd5b6001600160a01b0390811691821561118b571691821561113a57600082815260016020526040812054918083106110e657604082827fddf252ad1be2c89b69c2b068fc378daa952ba7f163c4a11628f55a4df523b3ef95876020965260018652038282205586815220818154019055604051908152a3565b60405162461bcd60e51b815260206004820152602660248201527f45524332303a207472616e7366657220616d6f756e7420657863656564732062604482015265616c616e636560d01b6064820152608490fd5b60405162461bcd60e51b815260206004820152602360248201527f45524332303a207472616e7366657220746f20746865207a65726f206164647260448201526265737360e81b6064820152608490fd5b60405162461bcd60e51b815260206004820152602560248201527f45524332303a207472616e736665722066726f6d20746865207a65726f206164604482015264647265737360d81b6064820152608490fd5b6001600160a01b0390811691821561128f571691821561123f5760207f8c5be1e5ebec7d5bd14f71427d1e84f3dd0314c0f7b2291e5b200ac8c7c3b925918360005260028252604060002085600052825280604060002055604051908152a3565b60405162461bcd60e51b815260206004820152602260248201527f45524332303a20617070726f766520746f20746865207a65726f206164647265604482015261737360f01b6064820152608490fd5b60405162461bcd60e51b8152602060048201526024808201527f45524332303a20617070726f76652066726f6d20746865207a65726f206164646044820152637265737360e01b6064820152608490fd5b9081518110156112f1570160200190565b634e487b7160e01b600052603260045260246000fd5b604051906060820182811067ffffffffffffffff821117610f9f57604052602a82526020820160403682378251156112f1576030905381516001908110156112f157607860218401536029905b8082116113a85750506113645790565b606460405162461bcd60e51b815260206004820152602060248201527f537472696e67733a20686578206c656e67746820696e73756666696369656e746044820152fd5b9091600f81166010811015611401576f181899199a1a9b1b9c1cb0b131b232b360811b901a6113d784866112e0565b5360041c9180156113ec576000190190611354565b60246000634e487b7160e01b81526011600452fd5b60246000634e487b7160e01b81526032600452fd5b519069ffffffffffffffffffff82168203610dbc5756fea26469706673582212206a5ee814ad407357d79536c93c91e3556af7d04607a44e3edc25549bc92eaaa664736f6c63430008140033",
    "linkReferences": {}
  },
  "methodIdentifiers": {
    "DEFAULT_ADMIN_ROLE()": "a217fddf",
    "allowance(address,address)": "dd62ed3e",
    "approve(address,uint256)": "095ea7b3",
    "balanceOf(address)": "70a08231",
    "decimals()": "313ce567",
    "decreaseAllowance(address,uint256)": "a457c2d7",
    "getRoleAdmin(bytes32)": "248a9ca3",
    "grantRole(bytes32,address)": "2f2ff15d",
    "hasRole(bytes32,address)": "91d14854",
    "increaseAllowance(address,uint256)": "39509351",
    "mint(address,uint256)": "40c10f19",
    "name()": "06fdde03",
    "quoteParity()": "2d15a567",
    "renounceRole(bytes32,address)": "36568abe",
    "retire(uint256)": "3790cf57",
    "revokeRole(bytes32,address)": "d547741f",
    "supportsInterface(bytes4)": "01ffc9a7",
    "symbol()": "95d89b41",
    "token()": "fc0c546a",
    "totalSupply()": "18160ddd",
    "transfer(address,uint256)": "a9059cbb",
    "transferFrom(address,address,uint256)": "23b872dd"
  },
  "id": 51
}