{
  "abi": [
    {
      "inputs": [
        {
          "internalType": "address",
          "name": "_factory",
          "type": "address"
        },
        {
          "internalType": "address",
          "name": "_cartesiInputBox",
          "type": "address"
        },
        {
          "internalType": "address",
          "name": "_cartesiEtherPortal",
          "type": "address"
        },
        {
          "internalType": "address",
          "name": "_cartesiERC20Portal",
          "type": "address"
        },
        {
          "internalType": "address",
          "name": "_cartesiDAppAddressRelay",
          "type": "address"
        },
        {
          "internalType": "address",
          "name": "_agent",
          "type": "address"
        }
      ],
      "stateMutability": "nonpayable",
      "type": "constructor"
    },
    {
      "anonymous": false,
      "inputs": [
        {
          "indexed": false,
          "internalType": "address",
          "name": "_company",
          "type": "address"
        }
      ],
      "name": "NewCompany",
      "type": "event"
    },
    {
      "anonymous": false,
      "inputs": [
        {
          "indexed": true,
          "internalType": "bytes32",
          "name": "role",
          "type": "bytes32"
        },
        {
          "indexed": true,
          "internalType": "bytes32",
          "name": "previousAdminRole",
          "type": "bytes32"
        },
        {
          "indexed": true,
          "internalType": "bytes32",
          "name": "newAdminRole",
          "type": "bytes32"
        }
      ],
      "name": "RoleAdminChanged",
      "type": "event"
    },
    {
      "anonymous": false,
      "inputs": [
        {
          "indexed": true,
          "internalType": "bytes32",
          "name": "role",
          "type": "bytes32"
        },
        {
          "indexed": true,
          "internalType": "address",
          "name": "account",
          "type": "address"
        },
        {
          "indexed": true,
          "internalType": "address",
          "name": "sender",
          "type": "address"
        }
      ],
      "name": "RoleGranted",
      "type": "event"
    },
    {
      "anonymous": false,
      "inputs": [
        {
          "indexed": true,
          "internalType": "bytes32",
          "name": "role",
          "type": "bytes32"
        },
        {
          "indexed": true,
          "internalType": "address",
          "name": "account",
          "type": "address"
        },
        {
          "indexed": true,
          "internalType": "address",
          "name": "sender",
          "type": "address"
        }
      ],
      "name": "RoleRevoked",
      "type": "event"
    },
    {
      "inputs": [],
      "name": "AGENT_ROLE",
      "outputs": [
        {
          "internalType": "bytes32",
          "name": "",
          "type": "bytes32"
        }
      ],
      "stateMutability": "view",
      "type": "function"
    },
    {
      "inputs": [],
      "name": "DEFAULT_ADMIN_ROLE",
      "outputs": [
        {
          "internalType": "bytes32",
          "name": "",
          "type": "bytes32"
        }
      ],
      "stateMutability": "view",
      "type": "function"
    },
    {
      "inputs": [],
      "name": "MINTER_ROLE",
      "outputs": [
        {
          "internalType": "bytes32",
          "name": "",
          "type": "bytes32"
        }
      ],
      "stateMutability": "view",
      "type": "function"
    },
    {
      "inputs": [
        {
          "internalType": "address",
          "name": "_newAgent",
          "type": "address"
        }
      ],
      "name": "addAgent",
      "outputs": [],
      "stateMutability": "nonpayable",
      "type": "function"
    },
    {
      "inputs": [
        {
          "internalType": "bytes32",
          "name": "role",
          "type": "bytes32"
        }
      ],
      "name": "getRoleAdmin",
      "outputs": [
        {
          "internalType": "bytes32",
          "name": "",
          "type": "bytes32"
        }
      ],
      "stateMutability": "view",
      "type": "function"
    },
    {
      "inputs": [
        {
          "internalType": "bytes32",
          "name": "role",
          "type": "bytes32"
        },
        {
          "internalType": "address",
          "name": "account",
          "type": "address"
        }
      ],
      "name": "grantRole",
      "outputs": [],
      "stateMutability": "nonpayable",
      "type": "function"
    },
    {
      "inputs": [
        {
          "internalType": "bytes32",
          "name": "role",
          "type": "bytes32"
        },
        {
          "internalType": "address",
          "name": "account",
          "type": "address"
        }
      ],
      "name": "hasRole",
      "outputs": [
        {
          "internalType": "bool",
          "name": "",
          "type": "bool"
        }
      ],
      "stateMutability": "view",
      "type": "function"
    },
    {
      "inputs": [],
      "name": "lilium",
      "outputs": [
        {
          "internalType": "address",
          "name": "factory",
          "type": "address"
        },
        {
          "internalType": "address",
          "name": "cartesiInputBox",
          "type": "address"
        },
        {
          "internalType": "address",
          "name": "cartesiERC20Portal",
          "type": "address"
        },
        {
          "internalType": "address",
          "name": "cartesiEtherPortal",
          "type": "address"
        },
        {
          "internalType": "address",
          "name": "cartesiDAppAddressRelay",
          "type": "address"
        }
      ],
      "stateMutability": "view",
      "type": "function"
    },
    {
      "inputs": [
        {
          "internalType": "string",
          "name": "_geographicLocation",
          "type": "string"
        },
        {
          "internalType": "string",
          "name": "_vegetation",
          "type": "string"
        },
        {
          "internalType": "uint256",
          "name": "_carbonCreditsEmitted",
          "type": "uint256"
        },
        {
          "internalType": "string",
          "name": "_weatherConditions",
          "type": "string"
        },
        {
          "internalType": "uint256",
          "name": "_hourlyCompensation",
          "type": "uint256"
        },
        {
          "internalType": "address",
          "name": "_agent",
          "type": "address"
        }
      ],
      "name": "newForestReserve",
      "outputs": [
        {
          "internalType": "address",
          "name": "",
          "type": "address"
        }
      ],
      "stateMutability": "nonpayable",
      "type": "function"
    },
    {
      "inputs": [
        {
          "internalType": "bytes32",
          "name": "role",
          "type": "bytes32"
        },
        {
          "internalType": "address",
          "name": "account",
          "type": "address"
        }
      ],
      "name": "renounceRole",
      "outputs": [],
      "stateMutability": "nonpayable",
      "type": "function"
    },
    {
      "inputs": [
        {
          "internalType": "bytes32",
          "name": "role",
          "type": "bytes32"
        },
        {
          "internalType": "address",
          "name": "account",
          "type": "address"
        }
      ],
      "name": "revokeRole",
      "outputs": [],
      "stateMutability": "nonpayable",
      "type": "function"
    },
    {
      "inputs": [
        {
          "internalType": "bytes4",
          "name": "interfaceId",
          "type": "bytes4"
        }
      ],
      "name": "supportsInterface",
      "outputs": [
        {
          "internalType": "bool",
          "name": "",
          "type": "bool"
        }
      ],
      "stateMutability": "view",
      "type": "function"
    }
  ],
  "bytecode": {
    "object": "0x608034620001c657601f620035f838819003918201601f191683019291906001600160401b03841183851017620001cb578160c09284926040968752833981010312620001c6576200005181620001e1565b602062000060818401620001e1565b916200006e858501620001e1565b936200007d60608201620001e1565b906200009a60a06200009260808401620001e1565b9201620001e1565b9460018060a01b03968780948180948160018060a01b0319991689600154161760015516876002541617600255168560035416176003551683600454161760045516906005541617600555600092838052838252848420921691828452815260ff8484205416156200018e575b7fcab5a0bfe0b79d2c4b1c2e02599fa044d115b7511f9659307cb427695096770990818452838152848420838552815260ff85852054161562000154575b84516133e19081620001f78239f35b8184528381528484209083855252838320600160ff19825416179055600080516020620035d8833981519152339380a43880808062000145565b8280528281528383208284528152838320805460ff19166001179055338284600080516020620035d88339815191528180a462000107565b600080fd5b634e487b7160e01b600052604160045260246000fd5b51906001600160a01b0382168203620001c65756fe608080604052600490813610156200001657600080fd5b60003560e01c90816301ffc9a7146200078f5750806322459e181462000752578063248a9ca314620007225780632f2ff15d146200066957806336568abe14620005d257806384e79842146200058c57806391d14854146200053b578063a217fddf146200051d578063c2e4db151462000194578063d53913931462000157578063d547741f146200010e5763dd0406b814620000b257600080fd5b346200010957600036600319011262000109576001546002546003549254600554604080516001600160a01b039586168152938516602085015294841694830194909452821660608201529116608082015260a090f35b600080fd5b503462000109576040366003190112620001095762000155903562000132620007e6565b908060005260006020526200014f60016040600020015462000ae0565b62000d89565b005b3462000109576000366003190112620001095760206040517f9f2df0fed2c77648de5860a4cc508cd0818c85b8b8a1ab4ceeef8d981c8956a68152f35b5034620001095760c03660031901126200010957803567ffffffffffffffff81116200010957620001c9903690830162000853565b9060243567ffffffffffffffff81116200010957620001ec903690830162000853565b9160643567ffffffffffffffff811162000109576200020f903690840162000853565b9260a4356001600160a01b0381169003620001095760249162000231620008af565b600154604051630b2ee08760e31b815230868201529360209185919082906001600160a01b03165afa928315620004a057600093620004f7575b506002546003548554600554604051966001600160a01b039485169691851695928516949093169290919061244b880180891167ffffffffffffffff90911117620004e2576200032892620002ee899a9b93620003059361244b62000f618d396001600160a01b031661244b8c0190815261016060208201819052019062000c22565b9061244b8a018203604061244b8c01015262000c22565b90604435606061244b8a01015261244b88018203608061244b8a01015262000c22565b9360843560a061244b8801015260c061244b8701015260e061244b8601015261010061244b8501015261012061244b8401015260018060a01b0360a4351661014061244b8401015203906000f08015620004a0576200038960a43562000c49565b6200039660a43562000cd8565b600154604051630b2ee08760e31b8152308482015290602090829060249082906001600160a01b03165afa908115620004a057600091620004ac575b506001600160a01b039182169116803b15620001095760008091604460405180948193632f2ff15d60e01b83527f9f2df0fed2c77648de5860a4cc508cd0818c85b8b8a1ab4ceeef8d981c8956a6898401528760248401525af18015620004a0576200046d575b6020827fcb06c2b3716d514ba6c4ded96f80167d09432e22a754b64a08cd180a26546ce082604051838152a1604051908152f35b67ffffffffffffffff81116200048b57602092506040523862000439565b604183634e487b7160e01b6000525260246000fd5b6040513d6000823e3d90fd5b620004d3915060203d602011620004da575b620004ca818362000830565b81019062000f3f565b38620003d2565b503d620004be565b604189634e487b7160e01b6000525260246000fd5b6200051591935060203d602011620004da57620004ca818362000830565b91386200026b565b34620001095760003660031901126200010957602060405160008152f35b503462000109576040366003190112620001095762000559620007e6565b9035600052600060205260406000209060018060a01b0316600052602052602060ff604060002054166040519015158152f35b5034620001095760203660031901126200010957356001600160a01b038116810362000109576200015590620005c1620008af565b620005cc8162000c49565b62000cd8565b5034620001095760403660031901126200010957620005f0620007e6565b336001600160a01b038216036200060d5762000155913562000d89565b60405162461bcd60e51b8152602081840152602f60248201527f416363657373436f6e74726f6c3a2063616e206f6e6c792072656e6f756e636560448201526e103937b632b9903337b91039b2b63360891b6064820152608490fd5b50346200010957604036600319011262000109573562000688620007e6565b816000526000602052620006a460016040600020015462000ae0565b81600052600060205260406000209060018060a01b0316908160005260205260ff6040600020541615620006d457005b8160005260006020526040600020816000526020526040600020600160ff1982541617905533917f2f8788117e7eff1d82e926ec794901d17c78024a50270940304540a733656f0d600080a4005b50346200010957602036600319011262000109573560005260006020526020600160406000200154604051908152f35b3462000109576000366003190112620001095760206040517fcab5a0bfe0b79d2c4b1c2e02599fa044d115b7511f9659307cb42769509677098152f35b8234620001095760203660031901126200010957359063ffffffff60e01b82168092036200010957602091637965db0b60e01b8114908115620007d4575b5015158152f35b6301ffc9a760e01b14905083620007cd565b602435906001600160a01b03821682036200010957565b6080810190811067ffffffffffffffff8211176200081a57604052565b634e487b7160e01b600052604160045260246000fd5b90601f8019910116810190811067ffffffffffffffff8211176200081a57604052565b81601f82011215620001095780359067ffffffffffffffff82116200081a57604051926200088c601f8401601f19166020018562000830565b828452602083830101116200010957816000926020809301838601378301015290565b3360009081527fe298cb3514b0702cec56ac2053c1ecb2187cfdc8a325f22a672bc5027eadc9e2602090815260408083205490927fcab5a0bfe0b79d2c4b1c2e02599fa044d115b7511f9659307cb42769509677099160ff1615620009145750505050565b6200091f3362000e26565b918451906200092e82620007fd565b6042825284820192606036853782511562000acc576030845382519060019182101562000acc5790607860218501536041915b81831162000a595750505062000a1757604862000a13938693620009f693620009e6985198899376020b1b1b2b9b9a1b7b73a3937b61d1030b1b1b7bab73a1604d1b8a860152620009bc815180928c60378901910162000bfd565b8401917001034b99036b4b9b9b4b733903937b6329607d1b60378401525180938684019062000bfd565b0103602881018752018562000830565b5192839262461bcd60e51b84526004840152602483019062000c22565b0390fd5b60648486519062461bcd60e51b825280600483015260248201527f537472696e67733a20686578206c656e67746820696e73756666696369656e746044820152fd5b909192600f8116601081101562000ab8576f181899199a1a9b1b9c1cb0b131b232b360811b901a62000a8c858762000dfe565b5360041c92801562000aa45760001901919062000961565b634e487b7160e01b82526011600452602482fd5b634e487b7160e01b83526032600452602483fd5b634e487b7160e01b81526032600452602490fd5b600090808252602090828252604092838120338252835260ff84822054161562000b0a5750505050565b62000b153362000e26565b9184519062000b2482620007fd565b6042825284820192606036853782511562000acc576030845382519060019182101562000acc5790607860218501536041915b81831162000bb25750505062000a1757604862000a13938693620009f693620009e6985198899376020b1b1b2b9b9a1b7b73a3937b61d1030b1b1b7bab73a1604d1b8a860152620009bc815180928c60378901910162000bfd565b909192600f8116601081101562000ab8576f181899199a1a9b1b9c1cb0b131b232b360811b901a62000be5858762000dfe565b5360041c92801562000aa45760001901919062000b57565b60005b83811062000c115750506000910152565b818101518382015260200162000c00565b9060209162000c3d8151809281855285808601910162000bfd565b601f01601f1916010190565b6001600160a01b031660008181527fad3228b676f7d3cd4284a5443f17f1962b36e491b30a40b2405849e597ba5fb5602052604081205490919060ff161562000c90575050565b818052816020526040822081835260205260408220600160ff1982541617905533917f2f8788117e7eff1d82e926ec794901d17c78024a50270940304540a733656f0d8180a4565b6001600160a01b031660008181527fe298cb3514b0702cec56ac2053c1ecb2187cfdc8a325f22a672bc5027eadc9e260205260408120549091907fcab5a0bfe0b79d2c4b1c2e02599fa044d115b7511f9659307cb42769509677099060ff161562000d4257505050565b808352826020526040832082845260205260408320600160ff198254161790557f2f8788117e7eff1d82e926ec794901d17c78024a50270940304540a733656f0d339380a4565b9060009180835282602052604083209160018060a01b03169182845260205260ff60408420541662000dba57505050565b80835282602052604083208284526020526040832060ff1981541690557ff6391f5c32d9c69d2a47ea670b442974b53935d1edc7fd64eb21e047a839171b339380a4565b90815181101562000e10570160200190565b634e487b7160e01b600052603260045260246000fd5b604051906060820182811067ffffffffffffffff8211176200081a57604052602a825260208201604036823782511562000e105760309053815160019081101562000e1057607860218401536029905b80821162000ecc57505062000e885790565b606460405162461bcd60e51b815260206004820152602060248201527f537472696e67733a20686578206c656e67746820696e73756666696369656e746044820152fd5b9091600f8116601081101562000f2a576f181899199a1a9b1b9c1cb0b131b232b360811b901a62000efe848662000dfe565b5360041c91801562000f1557600019019062000e76565b60246000634e487b7160e01b81526011600452fd5b60246000634e487b7160e01b81526032600452fd5b908160209103126200010957516001600160a01b038116810362000109579056fe60806040523462000708576200244b803803806200001d816200070d565b9283398101906101608183031262000708576200003a8162000733565b60208201519092906001600160401b0381116200070857816200005f91840162000748565b60408301519091906001600160401b0381116200070857816200008491850162000748565b6060840151608085015191929091906001600160401b0382116200070857620000af91860162000748565b60a085015190620000c360c0870162000733565b92620000d260e0880162000733565b94620000e2610100890162000733565b9662000101610140620000f96101208c0162000733565b9a0162000733565b600180546001600160a01b0319166001600160a01b03909c169b909b17909a558051906001600160401b038211620004e45760025490600182811c92168015620006fd575b6020831014620004c35781601f8493116200069c575b50602090601f83116001146200061e5760009262000612575b50508160011b916000199060031b1c1916176002555b8051906001600160401b038211620004e45760035490600182811c9216801562000607575b6020831014620004c35781601f84931162000595575b50602090601f83116001146200050657600092620004fa575b50508160011b916000199060031b1c1916176003555b6004558051906001600160401b038211620004e45760055490600182811c92168015620004d9575b6020831014620004c35781601f8493116200046a575b50602090601f8311600114620003db57600092620003cf575b50508160011b916000199060031b1c1916176005555b600655600980546001600160a01b03199081166001600160a01b0393841617909155600a8054821693831693909317909255600b8054831693821693909317909255600c8054909116928216929092179091551660008181526000805160206200242b833981519152602052604090205460ff16156200038b575b60008181527fe298cb3514b0702cec56ac2053c1ecb2187cfdc8a325f22a672bc5027eadc9e260205260409020547fcab5a0bfe0b79d2c4b1c2e02599fa044d115b7511f9659307cb4276950967709919060ff161562000348575b604051611c309081620007bb8239f35b8160005260006020526040600020816000526020526040600020600160ff198254161790553391600080516020620023eb833981519152600080a4388062000338565b60008181526000805160206200242b83398151915260205260408120805460ff1916600117905533908290600080516020620023eb8339815191528180a4620002dd565b0151905038806200024c565b6005600090815293507f036b6384b5eca791c62761152d0c79bb0604c104a5fb6f4eb0703f3154bb3db091905b601f19841685106200044e576001945083601f1981161062000434575b505050811b0160055562000262565b015160001960f88460031b161c1916905538808062000425565b8181015183556020948501946001909301929091019062000408565b90915060056000526020600020601f840160051c81019160208510620004b8575b90601f859493920160051c01905b818110620004a8575062000233565b6000815584935060010162000499565b90915081906200048b565b634e487b7160e01b600052602260045260246000fd5b91607f16916200021d565b634e487b7160e01b600052604160045260246000fd5b015190503880620001df565b6003600090815293507fc2575a0e9e593c00f959f8c92f12db2869c3395a3b0502d05e2516446f71f85b91905b601f198416851062000579576001945083601f198116106200055f575b505050811b01600355620001f5565b015160001960f88460031b161c1916905538808062000550565b8181015183556020948501946001909301929091019062000533565b60036000529091507fc2575a0e9e593c00f959f8c92f12db2869c3395a3b0502d05e2516446f71f85b601f840160051c810160208510620005ff575b90849392915b601f830160051c82018110620005ef575050620001c6565b60008155859450600101620005d7565b5080620005d1565b91607f1691620001b0565b01519050388062000175565b6002600090815293506000805160206200240b83398151915291905b601f198416851062000680576001945083601f1981161062000666575b505050811b016002556200018b565b015160001960f88460031b161c1916905538808062000657565b818101518355602094850194600190930192909101906200063a565b60026000529091506000805160206200240b833981519152601f840160051c810160208510620006f5575b90849392915b601f830160051c82018110620006e55750506200015c565b60008155859450600101620006cd565b5080620006c7565b91607f169162000146565b600080fd5b6040519190601f01601f191682016001600160401b03811183821017620004e457604052565b51906001600160a01b03821682036200070857565b919080601f84011215620007085782516001600160401b038111620004e4576020906200077e601f8201601f191683016200070d565b92818452828287010111620007085760005b818110620007a657508260009394955001015290565b85810183015184820184015282016200079056fe6080604081815260048036101561001557600080fd5b60009283358060e01c91826301ffc9a71461158257508163248a9ca314611558578163290f000a146113175781632e1a7d4d146111e25781632f2ff15d1461114357816336568abe146110b1578163430ca46f14610fa157816384e7984214610eab57816391d1485414610e66578163a217fddf14610e4a578163a694fc3a14610d42578163b0ad8070146109e6578163b111cb841461090a578163c1e8b268146105e1578163d547741f146105a3578163e2543d1c1461044e57508063ed91f1d0146102285763f8bd1d32146100eb57600080fd5b8291346102245780600319360112610224576101056115ed565b9161010e6115d7565b926101176116cf565b60018060a01b0380911693816bffffffffffffffffffffffff60a01b918683600754161760075516809160085416176008557f0ce23c3e399818cfee81a7ab0880f714e53d7672b08df0fa62f2843416e1ea0990816000526000602052846000208160005260205260ff856000205416156101e5575b5050600c541692833b156101e15760248592838551968794859363180b7a4f60e11b85528401525af19081156101d857506101c55750f35b6101ce90611603565b6101d55780f35b80fd5b513d84823e3d90fd5b8480fd5b816000526000602052846000208160005260205284600020600160ff198254161790553391600080516020611bbb833981519152600080a4388061018d565b5050fd5b50903461044a578260031936011261044a577f0ce23c3e399818cfee81a7ab0880f714e53d7672b08df0fa62f2843416e1ea099081600052602091600083528160002033600052835260ff826000205416156102935750505061028e6006548254611a29565b905580f35b61029f93929333611a73565b9082516102ab8161162d565b604281528581019160603684378151156104355760308353815160019081101561042057607860218401536041905b8082116103b357505061038457604861035793859361036693610380975196879376020b1b1b2b9b9a1b7b73a3937b61d1030b1b1b7bab73a1604d1b8c86015261032e8c825192839160378901910161166b565b8401917001034b99036b4b9b9b4b733903937b6329607d1b60378401525180938684019061166b565b01036028810185520183611649565b5193849362461bcd60e51b8552840152602483019061168e565b0390fd5b606485878087519262461bcd60e51b84528301526024820152600080516020611bdb8339815191526044820152fd5b9091600f8116601081101561040b576f181899199a1a9b1b9c1cb0b131b232b360811b901a6103e28486611a4c565b53871c9180156103f65760001901906102da565b601188634e487b7160e01b6000525260246000fd5b603289634e487b7160e01b6000525260246000fd5b603287634e487b7160e01b6000525260246000fd5b603286634e487b7160e01b6000525260246000fd5b8280fd5b82848660203660031901126101d55782359382519063ffffffff60e01b1660208201523360601b602482015284603882015260388152606081019080821067ffffffffffffffff83111761058e57818452600b5460075463938c054f60e01b60808401908152859485946001600160a01b0394851694929391926104ee926104dc9183911660848201611b95565b03607f1981018352605f190182611649565b519134905af13d15610589573d610504816116b3565b9061051185519283611649565b81528260203d92013e5b61054957505163450226b360e01b815233918101918252346020830152604082019290925281906060010390fd5b8151338152346020820152604081018590527f87f5b2fe112bf269d30fb8ca9dc0bde0afd0cc39258e13fafd75fe794795bf0e9080606081015b0390a180f35b61051b565b604185634e487b7160e01b6000525260246000fd5b5050903461044a578060031936011261044a576105de91356105d960016105c86115d7565b9383875286602052862001546118ab565b6119b5565b80f35b9190503461090657602090816003193601126101e15780359067ffffffffffffffff821161090257366023830112156109025781810135610621816116b3565b9461062e87519687611649565b81865287858701946024933685828401011161044a5780858993018837880101527f48404ec5122cfef2c4b0b727fa211cfb1e815e1b19d5c56f7d3cc0c616120a2880600052600086528760002033600052865260ff8860002054161561077c5750916106cc6106ff94928694895194859163ffffffff60e01b16878301526106bd8a5180928585019061166b565b81010383810185520183611649565b6009546008548851631789cd6360e01b81529586946001600160a01b039384169486948d94869493929116908401611b95565b03925af1801561077257610743575b506105837f380d8736de9b61b309370dc7c1bebb2e463b84221361ad0b09639c30d3bc28a7935192828493845283019061168e565b8190813d831161076b575b6107588183611649565b81010312610766573861070e565b600080fd5b503d61074e565b84513d87823e3d90fd5b838389889361078a33611a73565b9082516107968161162d565b604281528681019160603684378151156108ee576030835381516001908110156108da57607860218401536041905b80821161086f575050610841576048610380959385936108299361081a975197889376020b1b1b2b9b9a1b7b73a3937b61d1030b1b1b7bab73a1604d1b8d86015261032e8d825192839160378901910161166b565b01036028810186520184611649565b5194859462461bcd60e51b865285015283019061168e565b60648688878188519362461bcd60e51b8552840152820152600080516020611bdb8339815191526044820152fd5b9091600f811660108110156108c6576f181899199a1a9b1b9c1cb0b131b232b360811b901a61089e8486611a4c565b53881c9180156108b25760001901906107c5565b8760118a634e487b7160e01b600052526000fd5b8860328b634e487b7160e01b600052526000fd5b86603289634e487b7160e01b600052526000fd5b85603288634e487b7160e01b600052526000fd5b8580fd5b8380fd5b505050346109e25760208060031936011261044a577f7f83670760ccf6df0d685c2ffa624d26ca757940c78361fcbbf187253055f951916109496115ed565b906109526116cf565b7f48404ec5122cfef2c4b0b727fa211cfb1e815e1b19d5c56f7d3cc0c616120a2860008181528085528281206001600160a01b039094168082529385528290205460ff16156109a5575b5051908152a180f35b80600052600084528160002083600052845281600020600160ff19825416179055823391600080516020611bbb833981519152600080a43861099c565b5080fd5b505082346101d557806003193601126101d5575060018060a01b039060019282845416928151916000956002549687821c828916988915610d38575b6020998a83108114610d2557918a939188938285529081600014610d075750600114610cab575b50610a5692500385611649565b815190600060035480831c908381168015610ca1575b8b83108114610c8e57918b939186938285529081600014610c705750600114610c14575b50610a9d92500383611649565b85549083519660009160055480821c92828216908115610c0a575b8d85108214610bf757509183918d938c969587529081600014610bdb5750600114610b82575b50505003610aec9087611649565b6006549584600754169085600854169286600954169487600a54169688600b541698600c54169981519d8e9d8e528d61018091829101528d01610b2e9161168e565b908c8203908d0152610b3f9161168e565b9060608b015289810360808b0152610b569161168e565b9660a089015260c088015260e08701526101008601526101208501526101408401526101608301520390f35b600560009081529293507f036b6384b5eca791c62761152d0c79bb0604c104a5fb6f4eb0703f3154bb3db05b828410610bc357505050820101898b80610ade565b80549584018501959095528a94928401928101610bae565b60ff1916868501525050151560051b8301019050898b80610ade565b634e487b7160e01b865260229052602485fd5b93607f1693610ab8565b600360009081529150847fc2575a0e9e593c00f959f8c92f12db2869c3395a3b0502d05e2516446f71f85b5b828410610c595750505091610a9d928201018a92610a90565b805488850187015287945092850192869101610c40565b60ff191684860152508b9390151560051b8301019050610a9d610a90565b634e487b7160e01b845260228a52602484fd5b91607f1691610a6c565b600260009081529150847f405787fa12a823e0f2b7631cc41b3ba8828b3321ca811111fa75cd3aa3bb5ace5b828410610cf05750505091610a56928201018992610a49565b80548a850187015289945092850192869101610cd7565b60ff191684860152508a9390151560051b8301019050610a56610a49565b634e487b7160e01b845260228952602484fd5b90607f1690610a22565b828585346109e25760203660031901126109e257823591610d616116cf565b835483811015610d82578251630f6e5aa560e11b8152808601859052602490fd5b93610d8e848396611b70565b8155338252600d602052828220610da6858254611a29565b90556001546001600160a01b0316803b1561044a5783516340c10f1960e01b81523092810192835260208301869052918391839182908490829060400103925af18015610e4057610e2c575b50505133815260208101919091527febedb8b3c678666e7f36970bc8f57abf6d8fa2e828c0da91ea5b75bf68ed101a908060408101610583565b610e3590611603565b61044a578284610df2565b83513d84823e3d90fd5b505050346109e257816003193601126109e25751908152602090f35b50503461044a578160031936011261044a5781602093610e846115d7565b92358152808552209060018060a01b0316600052825260ff81600020541690519015158152f35b505050346109e25760208060031936011261044a577ff68e73cec97f2d70aa641fb26e87a4383686e2efacb648f2165aeb02ac562ec591610eea6115ed565b90610ef36116cf565b60008080528084528181206001600160a01b039093168082529284528190205460ff1615610f65575b7fcab5a0bfe0b79d2c4b1c2e02599fa044d115b7511f9659307cb427695096770980600052600084528160002083600052845260ff826000205416156109a5575051908152a180f35b60008052600083528060002082600052835280600020600160ff1982541617905533826000600080516020611bbb8339815191528180a4610f1c565b9190503461090657836003193601126109065782516001600160e01b031990921660208301528082528183019067ffffffffffffffff82118383101761109c575080835260208160018060a01b03818782600954169260075416631789cd6360e01b83528761101781603f199360448201611b95565b0301925af1801561108f57611060575b825133815242602082015284907f87dad067151d98b28c9d02d0a07497cfb730789196a761e8d5781eae1550026d908060408101610583565b9060209182903d8211611087575b8161107891611649565b81010312610766573880611027565b3d915061106e565b50505051903d90823e3d90fd5b604190634e487b7160e01b6000525260246000fd5b838584346109e257826003193601126109e2576110cc6115d7565b90336001600160a01b038316036110e857906105de91356119b5565b608490602085519162461bcd60e51b8352820152602f60248201527f416363657373436f6e74726f6c3a2063616e206f6e6c792072656e6f756e636560448201526e103937b632b9903337b91039b2b63360891b6064820152fd5b50503461044a578160031936011261044a57359061115f6115d7565b9082845283602052611176600182862001546118ab565b600083815260208181528282206001600160a01b039094168083529390528190205460ff16156111a4578380f35b8260005260006020528060002082600052602052600020600160ff198254161790553391600080516020611bbb833981519152600080a43880808380f35b505082346101d5576020806003193601126109e25782356112016116cf565b338352600d825284832080548281101561124a57505033808452600d9092525090839020549251633db7aa8160e21b815291820190815260208101929092529081906040010390fd5b83838789969461125d8361129996611b70565b9055600154875163a9059cbb60e01b8152339281019283526020830193909352919384926001600160a01b03169183918a918391604090910190565b03925af1801561077257917f884edad9ce6fa2440d8a54cc123490eb96d2768479d49ff9c7366125a9424364949161058394936112e9575b50505133815260208101919091529081906040820190565b8161130892903d10611310575b6113008183611649565b810190611b7d565b5085806112d1565b503d6112f6565b91929050346109065760603660031901126109065782359160443560243561133d6116cf565b600154600a54855163095ea7b360e01b81526001600160a01b0391821689820190815260208082018a905292969391929183918290036040019082908d908a165af190811561154e578991611530575b506113ba5750505060649450600a5416905192630cc386e760e31b84528301523360248301526044820152fd5b8794878792610e109485810295818704149015171561151d5763ffffffff60e01b16958251908760208301523360601b602483015285603883015286605883015260588252608082019282841067ffffffffffffffff85111761150a575090889183855280600a5416908060015416906007541690823b156101e1576395854b8160e01b8652608484015260a483015260c48201869052608060e4830152839182908490607f199061147061010482018261168e565b0301925af18015611500576114c2575b508051948552336020860152840152606083015260808201527f77a899b6d914cfb80b3509f1cb4918bbcc834fe214bff045c2c55ce0c19179799060a090a180f35b917f77a899b6d914cfb80b3509f1cb4918bbcc834fe214bff045c2c55ce0c1917979959391966114f460a09694611603565b96919395509193611480565b82513d89823e3d90fd5b634e487b7160e01b8a5260419052602489fd5b634e487b7160e01b885260118252602488fd5b611548915060203d8111611310576113008183611649565b3861138d565b86513d8b823e3d90fd5b50503461044a57602036600319011261044a57816020936001923581528085522001549051908152f35b935050503461044a57602036600319011261044a573563ffffffff60e01b811680910361044a5760209250637965db0b60e01b81149081156115c6575b5015158152f35b6301ffc9a760e01b149050386115bf565b602435906001600160a01b038216820361076657565b600435906001600160a01b038216820361076657565b67ffffffffffffffff811161161757604052565b634e487b7160e01b600052604160045260246000fd5b6080810190811067ffffffffffffffff82111761161757604052565b90601f8019910116810190811067ffffffffffffffff82111761161757604052565b60005b83811061167e5750506000910152565b818101518382015260200161166e565b906020916116a78151809281855285808601910161166b565b601f01601f1916010190565b67ffffffffffffffff811161161757601f01601f191660200190565b3360009081527fe298cb3514b0702cec56ac2053c1ecb2187cfdc8a325f22a672bc5027eadc9e2602090815260408083205490927fcab5a0bfe0b79d2c4b1c2e02599fa044d115b7511f9659307cb42769509677099160ff16156117335750505050565b61173c33611a73565b918451906117498261162d565b6042825284820192606036853782511561189757603084538251906001918210156118975790607860218501536041915b818311611829575050506117f95760486103809386936117dd936117ce985198899376020b1b1b2b9b9a1b7b73a3937b61d1030b1b1b7bab73a1604d1b8a86015261032e815180928c60378901910161166b565b01036028810187520185611649565b5192839262461bcd60e51b84526004840152602483019061168e565b60648486519062461bcd60e51b82528060048301526024820152600080516020611bdb8339815191526044820152fd5b909192600f81166010811015611883576f181899199a1a9b1b9c1cb0b131b232b360811b901a6118598587611a4c565b5360041c92801561186f5760001901919061177a565b634e487b7160e01b82526011600452602482fd5b634e487b7160e01b83526032600452602483fd5b634e487b7160e01b81526032600452602490fd5b600090808252602090828252604092838120338252835260ff8482205416156118d45750505050565b6118dd33611a73565b918451906118ea8261162d565b6042825284820192606036853782511561189757603084538251906001918210156118975790607860218501536041915b81831161196f575050506117f95760486103809386936117dd936117ce985198899376020b1b1b2b9b9a1b7b73a3937b61d1030b1b1b7bab73a1604d1b8a86015261032e815180928c60378901910161166b565b909192600f81166010811015611883576f181899199a1a9b1b9c1cb0b131b232b360811b901a61199f8587611a4c565b5360041c92801561186f5760001901919061191b565b9060009180835282602052604083209160018060a01b03169182845260205260ff6040842054166119e557505050565b80835282602052604083208284526020526040832060ff1981541690557ff6391f5c32d9c69d2a47ea670b442974b53935d1edc7fd64eb21e047a839171b339380a4565b91908201809211611a3657565b634e487b7160e01b600052601160045260246000fd5b908151811015611a5d570160200190565b634e487b7160e01b600052603260045260246000fd5b604051906060820182811067ffffffffffffffff82111761161757604052602a8252602082016040368237825115611a5d57603090538151600190811015611a5d57607860218401536029905b808211611b02575050611ad05790565b606460405162461bcd60e51b81526020600482015260206024820152600080516020611bdb8339815191526044820152fd5b9091600f81166010811015611b5b576f181899199a1a9b1b9c1cb0b131b232b360811b901a611b318486611a4c565b5360041c918015611b46576000190190611ac0565b60246000634e487b7160e01b81526011600452fd5b60246000634e487b7160e01b81526032600452fd5b91908203918211611a3657565b90816020910312610766575180151581036107665790565b6001600160a01b039091168152604060208201819052611bb79291019061168e565b9056fe2f8788117e7eff1d82e926ec794901d17c78024a50270940304540a733656f0d537472696e67733a20686578206c656e67746820696e73756666696369656e74a2646970667358221220a75b612158606a8651e179652b369fb55bb451389757c906b008f31b859b69b864736f6c634300081400332f8788117e7eff1d82e926ec794901d17c78024a50270940304540a733656f0d405787fa12a823e0f2b7631cc41b3ba8828b3321ca811111fa75cd3aa3bb5acead3228b676f7d3cd4284a5443f17f1962b36e491b30a40b2405849e597ba5fb5a2646970667358221220e0116c2b2d5823b954e81e697acdd8553dccacc5054acf76bd901ccd6c18cc0664736f6c634300081400332f8788117e7eff1d82e926ec794901d17c78024a50270940304540a733656f0d",
    "linkReferences": {}
  },
  "methodIdentifiers": {
    "AGENT_ROLE()": "22459e18",
    "DEFAULT_ADMIN_ROLE()": "a217fddf",
    "MINTER_ROLE()": "d5391393",
    "addAgent(address)": "84e79842",
    "getRoleAdmin(bytes32)": "248a9ca3",
    "grantRole(bytes32,address)": "2f2ff15d",
    "hasRole(bytes32,address)": "91d14854",
    "lilium()": "dd0406b8",
    "newForestReserve(string,string,uint256,string,uint256,address)": "c2e4db15",
    "renounceRole(bytes32,address)": "36568abe",
    "revokeRole(bytes32,address)": "d547741f",
    "supportsInterface(bytes4)": "01ffc9a7"
  },
  "id": 49
}