{
  "abi": [
    {
      "inputs": [
        {
          "internalType": "string",
          "name": "_tokenName",
          "type": "string"
        },
        {
          "internalType": "string",
          "name": "_tokenSymbol",
          "type": "string"
        },
        {
          "internalType": "uint8",
          "name": "_decimals",
          "type": "uint8"
        },
        {
          "internalType": "address",
          "name": "_certifier",
          "type": "address"
        },
        {
          "internalType": "address",
          "name": "_priceFeed",
          "type": "address"
        }
      ],
      "stateMutability": "nonpayable",
      "type": "constructor"
    },
    {
      "inputs": [
        {
          "internalType": "uint256",
          "name": "_amount",
          "type": "uint256"
        }
      ],
      "name": "InsufficientAmount",
      "type": "error"
    },
    {
      "anonymous": false,
      "inputs": [
        {
          "indexed": true,
          "internalType": "address",
          "name": "owner",
          "type": "address"
        },
        {
          "indexed": true,
          "internalType": "address",
          "name": "spender",
          "type": "address"
        },
        {
          "indexed": false,
          "internalType": "uint256",
          "name": "value",
          "type": "uint256"
        }
      ],
      "name": "Approval",
      "type": "event"
    },
    {
      "anonymous": false,
      "inputs": [
        {
          "indexed": false,
          "internalType": "address",
          "name": "_from",
          "type": "address"
        },
        {
          "indexed": false,
          "internalType": "address",
          "name": "_to",
          "type": "address"
        },
        {
          "indexed": false,
          "internalType": "uint256",
          "name": "_amount",
          "type": "uint256"
        }
      ],
      "name": "ApproveFrom",
      "type": "event"
    },
    {
      "anonymous": false,
      "inputs": [
        {
          "indexed": false,
          "internalType": "address",
          "name": "_sender",
          "type": "address"
        },
        {
          "indexed": false,
          "internalType": "uint256",
          "name": "_amount",
          "type": "uint256"
        }
      ],
      "name": "Retire",
      "type": "event"
    },
    {
      "anonymous": false,
      "inputs": [
        {
          "indexed": true,
          "internalType": "bytes32",
          "name": "role",
          "type": "bytes32"
        },
        {
          "indexed": true,
          "internalType": "bytes32",
          "name": "previousAdminRole",
          "type": "bytes32"
        },
        {
          "indexed": true,
          "internalType": "bytes32",
          "name": "newAdminRole",
          "type": "bytes32"
        }
      ],
      "name": "RoleAdminChanged",
      "type": "event"
    },
    {
      "anonymous": false,
      "inputs": [
        {
          "indexed": true,
          "internalType": "bytes32",
          "name": "role",
          "type": "bytes32"
        },
        {
          "indexed": true,
          "internalType": "address",
          "name": "account",
          "type": "address"
        },
        {
          "indexed": true,
          "internalType": "address",
          "name": "sender",
          "type": "address"
        }
      ],
      "name": "RoleGranted",
      "type": "event"
    },
    {
      "anonymous": false,
      "inputs": [
        {
          "indexed": true,
          "internalType": "bytes32",
          "name": "role",
          "type": "bytes32"
        },
        {
          "indexed": true,
          "internalType": "address",
          "name": "account",
          "type": "address"
        },
        {
          "indexed": true,
          "internalType": "address",
          "name": "sender",
          "type": "address"
        }
      ],
      "name": "RoleRevoked",
      "type": "event"
    },
    {
      "anonymous": false,
      "inputs": [
        {
          "indexed": true,
          "internalType": "address",
          "name": "from",
          "type": "address"
        },
        {
          "indexed": true,
          "internalType": "address",
          "name": "to",
          "type": "address"
        },
        {
          "indexed": false,
          "internalType": "uint256",
          "name": "value",
          "type": "uint256"
        }
      ],
      "name": "Transfer",
      "type": "event"
    },
    {
      "inputs": [],
      "name": "DEFAULT_ADMIN_ROLE",
      "outputs": [
        {
          "internalType": "bytes32",
          "name": "",
          "type": "bytes32"
        }
      ],
      "stateMutability": "view",
      "type": "function"
    },
    {
      "inputs": [
        {
          "internalType": "address",
          "name": "owner",
          "type": "address"
        },
        {
          "internalType": "address",
          "name": "spender",
          "type": "address"
        }
      ],
      "name": "allowance",
      "outputs": [
        {
          "internalType": "uint256",
          "name": "",
          "type": "uint256"
        }
      ],
      "stateMutability": "view",
      "type": "function"
    },
    {
      "inputs": [
        {
          "internalType": "address",
          "name": "spender",
          "type": "address"
        },
        {
          "internalType": "uint256",
          "name": "amount",
          "type": "uint256"
        }
      ],
      "name": "approve",
      "outputs": [
        {
          "internalType": "bool",
          "name": "",
          "type": "bool"
        }
      ],
      "stateMutability": "nonpayable",
      "type": "function"
    },
    {
      "inputs": [
        {
          "internalType": "address",
          "name": "account",
          "type": "address"
        }
      ],
      "name": "balanceOf",
      "outputs": [
        {
          "internalType": "uint256",
          "name": "",
          "type": "uint256"
        }
      ],
      "stateMutability": "view",
      "type": "function"
    },
    {
      "inputs": [],
      "name": "decimals",
      "outputs": [
        {
          "internalType": "uint8",
          "name": "",
          "type": "uint8"
        }
      ],
      "stateMutability": "pure",
      "type": "function"
    },
    {
      "inputs": [
        {
          "internalType": "address",
          "name": "spender",
          "type": "address"
        },
        {
          "internalType": "uint256",
          "name": "subtractedValue",
          "type": "uint256"
        }
      ],
      "name": "decreaseAllowance",
      "outputs": [
        {
          "internalType": "bool",
          "name": "",
          "type": "bool"
        }
      ],
      "stateMutability": "nonpayable",
      "type": "function"
    },
    {
      "inputs": [
        {
          "internalType": "bytes32",
          "name": "role",
          "type": "bytes32"
        }
      ],
      "name": "getRoleAdmin",
      "outputs": [
        {
          "internalType": "bytes32",
          "name": "",
          "type": "bytes32"
        }
      ],
      "stateMutability": "view",
      "type": "function"
    },
    {
      "inputs": [
        {
          "internalType": "bytes32",
          "name": "role",
          "type": "bytes32"
        },
        {
          "internalType": "address",
          "name": "account",
          "type": "address"
        }
      ],
      "name": "grantRole",
      "outputs": [],
      "stateMutability": "nonpayable",
      "type": "function"
    },
    {
      "inputs": [
        {
          "internalType": "bytes32",
          "name": "role",
          "type": "bytes32"
        },
        {
          "internalType": "address",
          "name": "account",
          "type": "address"
        }
      ],
      "name": "hasRole",
      "outputs": [
        {
          "internalType": "bool",
          "name": "",
          "type": "bool"
        }
      ],
      "stateMutability": "view",
      "type": "function"
    },
    {
      "inputs": [
        {
          "internalType": "address",
          "name": "spender",
          "type": "address"
        },
        {
          "internalType": "uint256",
          "name": "addedValue",
          "type": "uint256"
        }
      ],
      "name": "increaseAllowance",
      "outputs": [
        {
          "internalType": "bool",
          "name": "",
          "type": "bool"
        }
      ],
      "stateMutability": "nonpayable",
      "type": "function"
    },
    {
      "inputs": [
        {
          "internalType": "address",
          "name": "_to",
          "type": "address"
        },
        {
          "internalType": "uint256",
          "name": "_amount",
          "type": "uint256"
        }
      ],
      "name": "mint",
      "outputs": [],
      "stateMutability": "nonpayable",
      "type": "function"
    },
    {
      "inputs": [],
      "name": "name",
      "outputs": [
        {
          "internalType": "string",
          "name": "",
          "type": "string"
        }
      ],
      "stateMutability": "view",
      "type": "function"
    },
    {
      "inputs": [],
      "name": "quoteParity",
      "outputs": [
        {
          "internalType": "int256",
          "name": "",
          "type": "int256"
        }
      ],
      "stateMutability": "view",
      "type": "function"
    },
    {
      "inputs": [
        {
          "internalType": "bytes32",
          "name": "role",
          "type": "bytes32"
        },
        {
          "internalType": "address",
          "name": "account",
          "type": "address"
        }
      ],
      "name": "renounceRole",
      "outputs": [],
      "stateMutability": "nonpayable",
      "type": "function"
    },
    {
      "inputs": [
        {
          "internalType": "uint256",
          "name": "_amount",
          "type": "uint256"
        }
      ],
      "name": "retire",
      "outputs": [],
      "stateMutability": "nonpayable",
      "type": "function"
    },
    {
      "inputs": [
        {
          "internalType": "bytes32",
          "name": "role",
          "type": "bytes32"
        },
        {
          "internalType": "address",
          "name": "account",
          "type": "address"
        }
      ],
      "name": "revokeRole",
      "outputs": [],
      "stateMutability": "nonpayable",
      "type": "function"
    },
    {
      "inputs": [
        {
          "internalType": "bytes4",
          "name": "interfaceId",
          "type": "bytes4"
        }
      ],
      "name": "supportsInterface",
      "outputs": [
        {
          "internalType": "bool",
          "name": "",
          "type": "bool"
        }
      ],
      "stateMutability": "view",
      "type": "function"
    },
    {
      "inputs": [],
      "name": "symbol",
      "outputs": [
        {
          "internalType": "string",
          "name": "",
          "type": "string"
        }
      ],
      "stateMutability": "view",
      "type": "function"
    },
    {
      "inputs": [],
      "name": "token",
      "outputs": [
        {
          "internalType": "uint256",
          "name": "totalSupply",
          "type": "uint256"
        },
        {
          "internalType": "uint256",
          "name": "decimals",
          "type": "uint256"
        },
        {
          "internalType": "address",
          "name": "admin",
          "type": "address"
        },
        {
          "internalType": "address",
          "name": "parityRouter",
          "type": "address"
        },
        {
          "internalType": "address",
          "name": "cartesiCertifier",
          "type": "address"
        }
      ],
      "stateMutability": "view",
      "type": "function"
    },
    {
      "inputs": [],
      "name": "totalSupply",
      "outputs": [
        {
          "internalType": "uint256",
          "name": "",
          "type": "uint256"
        }
      ],
      "stateMutability": "view",
      "type": "function"
    },
    {
      "inputs": [
        {
          "internalType": "address",
          "name": "to",
          "type": "address"
        },
        {
          "internalType": "uint256",
          "name": "amount",
          "type": "uint256"
        }
      ],
      "name": "transfer",
      "outputs": [
        {
          "internalType": "bool",
          "name": "",
          "type": "bool"
        }
      ],
      "stateMutability": "nonpayable",
      "type": "function"
    },
    {
      "inputs": [
        {
          "internalType": "address",
          "name": "from",
          "type": "address"
        },
        {
          "internalType": "address",
          "name": "to",
          "type": "address"
        },
        {
          "internalType": "uint256",
          "name": "amount",
          "type": "uint256"
        }
      ],
      "name": "transferFrom",
      "outputs": [
        {
          "internalType": "bool",
          "name": "",
          "type": "bool"
        }
      ],
      "stateMutability": "nonpayable",
      "type": "function"
    }
  ],
  "bytecode": {
    "object": "0x60406080815234620004095762001983803803806200001e816200040e565b928339810160a082820312620004095781516001600160401b0391908281116200040957816200005091850162000434565b91602091828501519082821162000409576200006e91860162000434565b858501519060ff821680920362000409576200009b60806200009360608901620004a6565b9701620004a6565b928551818111620003f3576004928354916001988984811c94168015620003e8575b89851014620003d3578190601f948581116200037d575b508990858311600114620003155760009262000309575b5050600019600383901b1c191690891b1784555b8051928311620002f4576005938454908982811c92168015620002e9575b89831014620002d45750908183859493116200027e575b508791831160011462000216576000926200020a575b5050600019600383901b1c191690861b1790555b60075560018060a01b038094169360018060a01b031991858360085416176008551690600954161760095560008052600081528360002083600052815260ff84600020541615620001b9575b83516114c79081620004bc8239f35b600080526000815283600020908360005252826000209060ff19825416179055339060007f2f8788117e7eff1d82e926ec794901d17c78024a50270940304540a733656f0d8180a4388080620001aa565b0151905038806200014a565b90889350601f1983169185600052886000209260005b8a8282106200026757505084116200024d575b505050811b0190556200015e565b015160001960f88460031b161c191690553880806200023f565b8385015186558c979095019493840193016200022c565b90919250846000528760002083808601871c8201928a8710620002ca575b9186958c9295949301881c01915b828110620002ba57505062000134565b600081558695508b9101620002aa565b925081926200029c565b602290634e487b7160e01b6000525260246000fd5b91607f16916200011d565b604184634e487b7160e01b6000525260246000fd5b015190503880620000eb565b908b9350601f19831691886000528b6000209260005b8d8282106200036657505084116200034c575b505050811b018455620000ff565b015160001960f88460031b161c191690553880806200033e565b8385015186558f979095019493840193016200032b565b90915086600052896000208580850160051c8201928c8610620003c9575b918d91869594930160051c01915b828110620003b9575050620000d4565b600081558594508d9101620003a9565b925081926200039b565b602286634e487b7160e01b6000525260246000fd5b93607f1693620000bd565b634e487b7160e01b600052604160045260246000fd5b600080fd5b6040519190601f01601f191682016001600160401b03811183821017620003f357604052565b919080601f84011215620004095782516001600160401b038111620003f3576020906200046a601f8201601f191683016200040e565b92818452828287010111620004095760005b8181106200049257508260009394955001015290565b85810183015184820184015282016200047c565b51906001600160a01b0382168203620004095756fe608060408181526004918236101561001657600080fd5b600092833560e01c91826301ffc9a714610d275750816306fdde0314610c32578163095ea7b314610c0857816318160ddd14610be957816323b872dd14610b1d578163248a9ca314610af35781632d15a56714610a405781632f2ff15d14610997578163313ce5671461097b57816336568abe146108e95781633790cf571461077f578163395093511461072f57816340c10f191461046e57816370a082311461043657816391d14854146103f057816395d89b41146102ed578163a217fddf146102d2578163a457c2d714610223578163a9059cbb146101f1578163d547741f146101af57508063dd62ed3e146101675763fc0c546a1461011757600080fd5b3461016357816003193601126101635760a0906006549060075490600180851b0390816008541690826009541692600a5416938151958652602086015284015260608301526080820152f35b5080fd5b503461016357806003193601126101635780602092610184610dc9565b61018c610de4565b6001600160a01b0391821683526002865283832091168252845220549051908152f35b919050346101ed57806003193601126101ed576101ea91356101e560016101d4610de4565b938387528660205286200154610dfa565b610ffa565b80f35b8280fd5b50503461016357806003193601126101635760209061021a610211610dc9565b60243590611450565b90519015158152f35b905082346102cf57826003193601126102cf5761023e610dc9565b918360243592338152600260205281812060018060a01b038616825260205220549082821061027e576020856102778585038733611201565b5160018152f35b608490602086519162461bcd60e51b8352820152602560248201527f45524332303a2064656372656173656420616c6c6f77616e63652062656c6f77604482015264207a65726f60d81b6064820152fd5b80fd5b50503461016357816003193601126101635751908152602090f35b919050346101ed57826003193601126101ed57805191836005549060019082821c9282811680156103e6575b60209586861082146103d357508488529081156103b15750600114610358575b610354868661034a828b0383610fd8565b5191829182610d9d565b0390f35b929550600583527f036b6384b5eca791c62761152d0c79bb0604c104a5fb6f4eb0703f3154bb3db05b82841061039e57505050826103549461034a928201019438610339565b8054868501880152928601928101610381565b60ff191687860152505050151560051b830101925061034a8261035438610339565b634e487b7160e01b845260229052602483fd5b93607f1693610319565b9050346101ed57816003193601126101ed578160209360ff92610411610de4565b903582528186528282206001600160a01b039091168252855220549151911615158152f35b5050346101635760203660031901126101635760209181906001600160a01b0361045e610dc9565b1681526001845220549051908152f35b9050346101ed57816003193601126101ed57610488610dc9565b906024928335917f9f2df0fed2c77648de5860a4cc508cd0818c85b8b8a1ab4ceeef8d981c8956a693848752602094878652838820338952865260ff84892054161561056d57506001600160a01b031694851561052d575050918185936105127fddf252ad1be2c89b69c2b068fc378daa952ba7f163c4a11628f55a4df523b3ef9460035461106e565b6003558585526001835280852082815401905551908152a380f35b601f9085606494519362461bcd60e51b85528401528201527f45524332303a206d696e7420746f20746865207a65726f2061646472657373006044820152fd5b85915086889161057c3361132a565b909186519261058a84610fa6565b6042845285840194606036873784511561071d576030865384519060019182101561070b5790607860218701536041915b8183116106a257505050610661575061065d9386936106499361063a6048946106119a519a8576020b1b1b2b9b9a1b7b73a3937b61d1030b1b1b7bab73a1604d1b8d978801528251928391603789019101610d7a565b8401917001034b99036b4b9b9b4b733903937b6329607d1b603784015251809386840190610d7a565b01036028810187520185610fd8565b5162461bcd60e51b81529283928301610d9d565b0390fd5b9250505081606494519362461bcd60e51b85528401528201527f537472696e67733a20686578206c656e67746820696e73756666696369656e746044820152fd5b909192600f811660108110156106f9576f181899199a1a9b1b9c1cb0b131b232b360811b901a6106d28589611303565b53891c9280156106e7576000190191906105bb565b634e487b7160e01b825260118a528482fd5b634e487b7160e01b835260328b528583fd5b634e487b7160e01b8152603289528390fd5b634e487b7160e01b8152603288529050fd5b505034610163578060031936011261016357610277602092610778610752610dc9565b338352600286528483206001600160a01b0382168452865291849020546024359061106e565b9033611201565b83833461016357602091826003193601126102cf57833592338252600181528383832054106000146107c25782516377b8dde360e01b8152808601859052602490fd5b9092331561089c5733845260018252828420549481861061084e5750807f82b89ed824b293574a2cca050e6e27837b60436d911352f8dca203a9cd35241c949533875260018452038386205580600354036003558483518281527fddf252ad1be2c89b69c2b068fc378daa952ba7f163c4a11628f55a4df523b3ef843392a3825191338352820152a180f35b835162461bcd60e51b8152908101839052602260248201527f45524332303a206275726e20616d6f756e7420657863656564732062616c616e604482015261636560f01b6064820152608490fd5b825162461bcd60e51b8152808601839052602160248201527f45524332303a206275726e2066726f6d20746865207a65726f206164647265736044820152607360f81b6064820152608490fd5b83915034610163578260031936011261016357610904610de4565b90336001600160a01b0383160361092057906101ea9135610ffa565b608490602085519162461bcd60e51b8352820152602f60248201527f416363657373436f6e74726f6c3a2063616e206f6e6c792072656e6f756e636560448201526e103937b632b9903337b91039b2b63360891b6064820152fd5b5050346101635781600319360112610163576020905160028152f35b9050346101ed57816003193601126101ed5735906109b3610de4565b90828452836020526109ca60018286200154610dfa565b82845260208481528185206001600160a01b039093168086529290528084205460ff16156109f6578380f35b828452836020528084208285526020528320600160ff1982541617905533917f2f8788117e7eff1d82e926ec794901d17c78024a50270940304540a733656f0d8480a43880808380f35b9050346101ed57826003193601126101ed576009548251633fabe5a360e21b81529160a09183919082906001600160a01b03165afa928315610ae8578093610a93575b6020846305f5e100855191058152f35b90925060a0833d8211610ae0575b81610aae60a09383610fd8565b810103126102cf57506305f5e10082610ac8602094611439565b50610ad96080858301519201611439565b5092610a83565b3d9150610aa1565b8251903d90823e3d90fd5b9050346101ed5760203660031901126101ed57816020936001923581528085522001549051908152f35b8391503461016357606036600319011261016357610b39610dc9565b610b41610de4565b6001600160a01b03821684526002602090815285852033865290529284902054604435939260018201610b7d575b602086610277878787611091565b848210610ba65750918391610b9b6020969561027795033383611201565b919394819350610b6f565b606490602087519162461bcd60e51b8352820152601d60248201527f45524332303a20696e73756666696369656e7420616c6c6f77616e63650000006044820152fd5b5050346101635781600319360112610163576020906003549051908152f35b505034610163578060031936011261016357602090610277610c28610dc9565b6024359033611201565b838334610163578160031936011261016357805191809380549160019083821c92828516948515610d1d575b6020958686108114610d0a57858952908115610ce65750600114610c8e575b610354878761034a828c0383610fd8565b81529295507f8a35acfbc15ff81a39ae7d344fd709f28e8600b4aa8c65c6b64bfe7fe36bd19b5b828410610cd357505050826103549461034a92820101948680610c7d565b8054868501880152928601928101610cb5565b60ff19168887015250505050151560051b830101925061034a826103548680610c7d565b634e487b7160e01b845260228352602484fd5b93607f1693610c5e565b8491346101ed5760203660031901126101ed573563ffffffff60e01b81168091036101ed5760209250637965db0b60e01b8114908115610d69575b5015158152f35b6301ffc9a760e01b14905083610d62565b60005b838110610d8d5750506000910152565b8181015183820152602001610d7d565b60409160208252610dbd8151809281602086015260208686019101610d7a565b601f01601f1916010190565b600435906001600160a01b0382168203610ddf57565b600080fd5b602435906001600160a01b0382168203610ddf57565b6000818152602090808252604092838220338352835260ff848320541615610e225750505050565b610e2b3361132a565b845191610e3783610fa6565b60428352848301936060368637835115610f925760308553835190600191821015610f925790607860218601536041915b818311610f2457505050610ee257610611938593610ecc93610ebd60489461065d9951988576020b1b1b2b9b9a1b7b73a3937b61d1030b1b1b7bab73a1604d1b8b978801528251928391603789019101610d7a565b01036028810185520183610fd8565b5162461bcd60e51b815291829160048301610d9d565b60648486519062461bcd60e51b825280600483015260248201527f537472696e67733a20686578206c656e67746820696e73756666696369656e746044820152fd5b909192600f81166010811015610f7e576f181899199a1a9b1b9c1cb0b131b232b360811b901a610f548588611303565b5360041c928015610f6a57600019019190610e68565b634e487b7160e01b82526011600452602482fd5b634e487b7160e01b83526032600452602483fd5b634e487b7160e01b81526032600452602490fd5b6080810190811067ffffffffffffffff821117610fc257604052565b634e487b7160e01b600052604160045260246000fd5b90601f8019910116810190811067ffffffffffffffff821117610fc257604052565b9060009180835282602052604083209160018060a01b03169182845260205260ff60408420541661102a57505050565b80835282602052604083208284526020526040832060ff1981541690557ff6391f5c32d9c69d2a47ea670b442974b53935d1edc7fd64eb21e047a839171b339380a4565b9190820180921161107b57565b634e487b7160e01b600052601160045260246000fd5b6001600160a01b039081169182156111ae571691821561115d576000828152600160205260408120549180831061110957604082827fddf252ad1be2c89b69c2b068fc378daa952ba7f163c4a11628f55a4df523b3ef95876020965260018652038282205586815220818154019055604051908152a3565b60405162461bcd60e51b815260206004820152602660248201527f45524332303a207472616e7366657220616d6f756e7420657863656564732062604482015265616c616e636560d01b6064820152608490fd5b60405162461bcd60e51b815260206004820152602360248201527f45524332303a207472616e7366657220746f20746865207a65726f206164647260448201526265737360e81b6064820152608490fd5b60405162461bcd60e51b815260206004820152602560248201527f45524332303a207472616e736665722066726f6d20746865207a65726f206164604482015264647265737360d81b6064820152608490fd5b6001600160a01b039081169182156112b257169182156112625760207f8c5be1e5ebec7d5bd14f71427d1e84f3dd0314c0f7b2291e5b200ac8c7c3b925918360005260028252604060002085600052825280604060002055604051908152a3565b60405162461bcd60e51b815260206004820152602260248201527f45524332303a20617070726f766520746f20746865207a65726f206164647265604482015261737360f01b6064820152608490fd5b60405162461bcd60e51b8152602060048201526024808201527f45524332303a20617070726f76652066726f6d20746865207a65726f206164646044820152637265737360e01b6064820152608490fd5b908151811015611314570160200190565b634e487b7160e01b600052603260045260246000fd5b604051906060820182811067ffffffffffffffff821117610fc257604052602a82526020820160403682378251156113145760309053815160019081101561131457607860218401536029905b8082116113cb5750506113875790565b606460405162461bcd60e51b815260206004820152602060248201527f537472696e67733a20686578206c656e67746820696e73756666696369656e746044820152fd5b9091600f81166010811015611424576f181899199a1a9b1b9c1cb0b131b232b360811b901a6113fa8486611303565b5360041c91801561140f576000190190611377565b60246000634e487b7160e01b81526011600452fd5b60246000634e487b7160e01b81526032600452fd5b519069ffffffffffffffffffff82168203610ddf57565b3360005260016020528160406000205410600014611481576040516377b8dde360e01b815260048101839052602490fd5b9061148c9133611091565b60019056fea2646970667358221220898acc7c716929ed1437018e9280f703a3cac314d0ec956ec119f1a0f929b7b664736f6c63430008140033",
    "linkReferences": {}
  },
  "methodIdentifiers": {
    "DEFAULT_ADMIN_ROLE()": "a217fddf",
    "allowance(address,address)": "dd62ed3e",
    "approve(address,uint256)": "095ea7b3",
    "balanceOf(address)": "70a08231",
    "decimals()": "313ce567",
    "decreaseAllowance(address,uint256)": "a457c2d7",
    "getRoleAdmin(bytes32)": "248a9ca3",
    "grantRole(bytes32,address)": "2f2ff15d",
    "hasRole(bytes32,address)": "91d14854",
    "increaseAllowance(address,uint256)": "39509351",
    "mint(address,uint256)": "40c10f19",
    "name()": "06fdde03",
    "quoteParity()": "2d15a567",
    "renounceRole(bytes32,address)": "36568abe",
    "retire(uint256)": "3790cf57",
    "revokeRole(bytes32,address)": "d547741f",
    "supportsInterface(bytes4)": "01ffc9a7",
    "symbol()": "95d89b41",
    "token()": "fc0c546a",
    "totalSupply()": "18160ddd",
    "transfer(address,uint256)": "a9059cbb",
    "transferFrom(address,address,uint256)": "23b872dd"
  },
  "id": 69
}