{
  "abi": [
    {
      "inputs": [
        {
          "internalType": "string",
          "name": "_cid",
          "type": "string"
        },
        {
          "internalType": "string",
          "name": "_name",
          "type": "string"
        },
        {
          "internalType": "address",
          "name": "_lilium",
          "type": "address"
        },
        {
          "internalType": "address",
          "name": "_agent",
          "type": "address"
        },
        {
          "internalType": "address",
          "name": "_cartesiInputBox",
          "type": "address"
        },
        {
          "internalType": "address",
          "name": "_cartesiEtherPortal",
          "type": "address"
        },
        {
          "internalType": "address",
          "name": "_cartesiERC20Portal",
          "type": "address"
        },
        {
          "internalType": "address",
          "name": "_cartesiDAppAddressRelay",
          "type": "address"
        }
      ],
      "stateMutability": "nonpayable",
      "type": "constructor"
    },
    {
      "inputs": [],
      "name": "Unouthorized",
      "type": "error"
    },
    {
      "anonymous": false,
      "inputs": [
        {
          "indexed": false,
          "internalType": "address",
          "name": "_company",
          "type": "address"
        }
      ],
      "name": "NewCompany",
      "type": "event"
    },
    {
      "inputs": [],
      "name": "AGENT_ROLE",
      "outputs": [
        {
          "internalType": "bytes32",
          "name": "",
          "type": "bytes32"
        }
      ],
      "stateMutability": "view",
      "type": "function"
    },
    {
      "inputs": [],
      "name": "MASTER_ROLE",
      "outputs": [
        {
          "internalType": "bytes32",
          "name": "",
          "type": "bytes32"
        }
      ],
      "stateMutability": "view",
      "type": "function"
    },
    {
      "inputs": [],
      "name": "MINTER_ROLE",
      "outputs": [
        {
          "internalType": "bytes32",
          "name": "",
          "type": "bytes32"
        }
      ],
      "stateMutability": "view",
      "type": "function"
    },
    {
      "inputs": [],
      "name": "certifier",
      "outputs": [
        {
          "internalType": "string",
          "name": "cid",
          "type": "string"
        },
        {
          "internalType": "string",
          "name": "name",
          "type": "string"
        },
        {
          "internalType": "address",
          "name": "master",
          "type": "address"
        },
        {
          "internalType": "address",
          "name": "agent",
          "type": "address"
        },
        {
          "internalType": "address",
          "name": "token",
          "type": "address"
        },
        {
          "internalType": "address",
          "name": "cartesiInputBox",
          "type": "address"
        },
        {
          "internalType": "address",
          "name": "cartesiCertifier",
          "type": "address"
        },
        {
          "internalType": "address",
          "name": "cartesiERC20Portal",
          "type": "address"
        },
        {
          "internalType": "address",
          "name": "cartesiEtherPortal",
          "type": "address"
        },
        {
          "internalType": "address",
          "name": "cartesiDAppAddressRelay",
          "type": "address"
        }
      ],
      "stateMutability": "view",
      "type": "function"
    },
    {
      "inputs": [],
      "name": "getURI",
      "outputs": [
        {
          "internalType": "string",
          "name": "",
          "type": "string"
        }
      ],
      "stateMutability": "view",
      "type": "function"
    },
    {
      "inputs": [
        {
          "internalType": "string",
          "name": "_cid",
          "type": "string"
        },
        {
          "internalType": "string",
          "name": "_name",
          "type": "string"
        },
        {
          "internalType": "string",
          "name": "_country",
          "type": "string"
        },
        {
          "internalType": "string",
          "name": "_industry",
          "type": "string"
        },
        {
          "internalType": "uint256",
          "name": "_allowance",
          "type": "uint256"
        },
        {
          "internalType": "uint256",
          "name": "_compensation",
          "type": "uint256"
        },
        {
          "internalType": "address",
          "name": "_agent",
          "type": "address"
        }
      ],
      "name": "newCompany",
      "outputs": [
        {
          "internalType": "address",
          "name": "",
          "type": "address"
        }
      ],
      "stateMutability": "nonpayable",
      "type": "function"
    }
  ],
  "bytecode": {
    "object": "0x608060405234620003e25762003422803803806200001d81620003e7565b92833981019061010081830312620003e25780516001600160401b039290838111620003e25781620000519184016200040d565b926020918284015190828211620003e2576200006f9185016200040d565b916200007e604085016200047f565b946200008d606086016200047f565b906200009c608087016200047f565b93620000ab60a088016200047f565b93620000c860e0620000c060c08b016200047f565b99016200047f565b96835191838311620003cc576000908154936001968786811c96168015620003c1575b83871014620003ad578190601f968781116200035a575b508390878311600114620002f6578592620002ea575b5050600019600383901b1c191690871b1782555b8251948511620002d65785548681811c91168015620002cb575b82821014620002b7579081858796959493116200025e575b5080938511600114620001f7575092620001eb575b5050600019600383901b1c191690821b1790555b60018060a01b03948580948180948160018060a01b03199b168b60025416176002551689600354161760035516876005541617600555168560075416176007551683600854161760085516906009541617600955604051612f8d9081620004958239f35b01519050388062000173565b868252808220879650939291601f198616915b8282106200024457505084116200022a575b505050811b01905562000187565b015160001960f88460031b161c191690553880806200021c565b84840151865588979095019493840193908101906200020a565b9091929394508683528183208580880160051c820192848910620002ad575b9188978a9297969594930160051c01915b8281106200029e5750506200015e565b8481558897508991016200028e565b925081926200027d565b634e487b7160e01b83526022600452602483fd5b90607f169062000146565b634e487b7160e01b82526041600452602482fd5b01519050388062000118565b8580528486208a94509190601f198416875b8782821062000343575050841162000329575b505050811b0182556200012c565b015160001960f88460031b161c191690553880806200031b565b8385015186558d9790950194938401930162000308565b9091508480528385208780850160051c820192868610620003a3575b918b91869594930160051c01915b8281106200039457505062000102565b8781558594508b910162000384565b9250819262000376565b634e487b7160e01b84526022600452602484fd5b95607f1695620000eb565b634e487b7160e01b600052604160045260246000fd5b600080fd5b6040519190601f01601f191682016001600160401b03811183821017620003cc57604052565b919080601f84011215620003e25782516001600160401b038111620003cc5760209062000443601f8201601f19168301620003e7565b92818452828287010111620003e25760005b8181106200046b57508260009394955001015290565b858101830151848201840152820162000455565b51906001600160a01b0382168203620003e25756fe60406080815260043610156200001457600080fd5b60003560e01c8063120c7efd14620005ce57806322459e1814620005915780636f7fead014620001d15780637754305c14620000e4578063d539139314620000a75763dc224863146200006657600080fd5b34620000a2576000366003190112620000a257602090517f8b8c0776df2c2176edf6f82391c35ea4891146d7a976ee36fd07f1a6fb4ead4c8152f35b600080fd5b5034620000a2576000366003190112620000a257602090517f9f2df0fed2c77648de5860a4cc508cd0818c85b8b8a1ab4ceeef8d981c8956a68152f35b5034620000a2576000366003190112620000a2576200010262000786565b81519180830183811067ffffffffffffffff821117620001bb57819392935260158083526020927468747470733a2f2f697066732e696f2f697066732f60581b8482015283835195869260005b858110620001a357505092826035926200017f6200019f9796856200018f9701600081528151938492016200087a565b8101039081018752018562000763565b519282849384528301906200089f565b0390f35b8181018401518982018501528894508793016200014f565b634e487b7160e01b600052604160045260246000fd5b5034620000a25760e0366003190112620000a25760043567ffffffffffffffff8111620000a25762000208903690600401620008c6565b9060243567ffffffffffffffff8111620000a2576200022c903690600401620008c6565b9160443567ffffffffffffffff8111620000a25762000250903690600401620008c6565b9060643567ffffffffffffffff8111620000a25762000274903690600401620008c6565b9360c435906001600160a01b0382168203620000a2576003546001600160a01b0316330362000580576002548551630b2ee08760e31b8152306004820152959690602090879060249082906001600160a01b03165afa95861562000575576000966200054f575b506005546007546008546009548a51996001600160a01b0394851698918516969285169593909416939092919067ffffffffffffffff6126148c01908111908c1117620001bb578a996200036c620003929362000354620003a9978e61261462000944823961018061261490910181815201906200089f565b908d602061261482018403916126140101526200089f565b6001600160a01b039092166126148c01808f01919091528083036060909101526200089f565b906126148901820360806126148b0101526200089f565b9460843560a06126148901015260c06126148801015260e061261487010152610100612614860101526101206126148501015260a4356101406126148501015260018060a01b03166101606126148401015203906000f090811562000545576002548151630b2ee08760e31b815230600482015290602090829060249082906001600160a01b03165afa9081156200053a5760009162000504575b506001600160a01b03908116921690823b15620000a257600080936044835180968193632f2ff15d60e01b83527f9f2df0fed2c77648de5860a4cc508cd0818c85b8b8a1ab4ceeef8d981c8956a660048401528760248401525af18015620004f957620004de575b602092507fcb06c2b3716d514ba6c4ded96f80167d09432e22a754b64a08cd180a26546ce0838251848152a151908152f35b67ffffffffffffffff8311620001bb576020928152620004ac565b50513d6000823e3d90fd5b6200052b915060203d60201162000532575b62000522818362000763565b81019062000922565b3862000444565b503d62000516565b82513d6000823e3d90fd5b513d6000823e3d90fd5b6200056d91965060203d602011620005325762000522818362000763565b9438620002db565b87513d6000823e3d90fd5b84516355db333f60e01b8152600490fd5b5034620000a2576000366003190112620000a257602090517fcab5a0bfe0b79d2c4b1c2e02599fa044d115b7511f9659307cb42769509677098152f35b5034620000a2576000366003190112620000a257620005ec62000786565b81519160009260019384549485811c9080871696871562000758575b60209788841081146200074257838652908115620007225750600114620006c6575b5050936200063f826200068c96038362000763565b60018060a01b03908160025416826003541683600454168460055416918560065416936200069987600754169688600854169860095416998b51809e819e6101408084528301906200089f565b928184039101526200089f565b988a01526060890152608088015260a087015260c086015260e08501526101008401526101208301520390f35b60008181529692507fb10e2d527612073b26eecdfd717e6a320cf44b4afac2b0732d9fcbe2b7fa0cf65b8288106200070e575091958301860191506200063f9050826200062a565b8054858901850152968301968101620006f0565b60ff1916858901525050151560051b8201850190506200063f826200062a565b634e487b7160e01b600052602260045260246000fd5b91607f169162000608565b90601f8019910116810190811067ffffffffffffffff821117620001bb57604052565b604051906000805490600182811c908084169384156200086f575b60209485841081146200085b5783885287949392918115620008395750600114620007d9575b5050620007d79250038362000763565b565b60008080527f290decd9548b62a8d60345a988386fc84ba6bc95484008f6362f93160ef3e56395935091905b81831062000820575050620007d793508201013880620007c7565b8554888401850152948501948794509183019162000805565b915050620007d794925060ff191682840152151560051b8201013880620007c7565b634e487b7160e01b85526022600452602485fd5b91607f1691620007a1565b60005b8381106200088e5750506000910152565b81810151838201526020016200087d565b90602091620008ba815180928185528580860191016200087a565b601f01601f1916010190565b81601f82011215620000a25780359067ffffffffffffffff8211620001bb5760405192620008ff601f8401601f19166020018562000763565b82845260208383010111620000a257816000926020809301838601378301015290565b90816020910312620000a257516001600160a01b0381168103620000a2579056fe604060808152346200086b5762002614803803806200001e8162000870565b928339810190610180818303126200086b5780516001600160401b0381116200086b57826200004f91830162000896565b60208201519092906001600160401b0381116200086b57816200007491840162000896565b906200008285840162000908565b60608401519091906001600160401b0381116200086b5781620000a791860162000896565b608085015190916001600160401b0382116200086b57620000ca91860162000896565b60a0850151620000dd60c0870162000908565b91620000ec60e0880162000908565b93620000fc610100890162000908565b956200010c6101208a0162000908565b97620001226101606101408c01519b0162000908565b8b51909b6001600160401b038211620005515760015490600182811c9216801562000860575b6020831014620005305781601f849311620007ff575b50602090601f8311600114620007815760009262000775575b50508160011b916000199060031b1c1916176001555b8051906001600160401b038211620005515760025490600182811c921680156200076a575b6020831014620005305781601f84931162000709575b50602090601f83116001146200068b576000926200067f575b50508160011b916000199060031b1c1916176002555b600380546001600160a01b0319166001600160a01b03929092169190911790558051906001600160401b038211620005515760045490600182811c9216801562000674575b6020831014620005305781601f84931162000602575b50602090601f8311600114620005735760009262000567575b50508160011b916000199060031b1c1916176004555b8051906001600160401b038211620005515760055490600182811c9216801562000546575b6020831014620005305781601f849311620004da575b50602090601f83116001146200044b576000926200043f575b50508160011b916000199060031b1c1916176005555b600655600980546001600160a01b03199081166001600160a01b0393841617909155600b8054821693831693909317909255600c8054831693821693909317909255600d805490911692821692909217909155600e919091556000808052602081815284822093909216808252929091528290205460ff1615620003ff575b7fcab5a0bfe0b79d2c4b1c2e02599fa044d115b7511f9659307cb427695096770990816000526000602052826000208160005260205260ff83600020541615620003be575b8251611c9690816200091e8239f35b816000526000602052826000208160005260205282600020600160ff198254161790553391600080516020620025b4833981519152600080a43880620003af565b600080526000602052816000208160005260205281600020600160ff1982541617905533816000600080516020620025b48339815191528180a46200036a565b015190503880620002d5565b6005600090815293507f036b6384b5eca791c62761152d0c79bb0604c104a5fb6f4eb0703f3154bb3db091905b601f1984168510620004be576001945083601f19811610620004a4575b505050811b01600555620002eb565b015160001960f88460031b161c1916905538808062000495565b8181015183556020948501946001909301929091019062000478565b90915060056000526020600020601f840160051c81016020851062000528575b90849392915b601f830160051c8201811062000518575050620002bc565b6000815585945060010162000500565b5080620004fa565b634e487b7160e01b600052602260045260246000fd5b91607f1691620002a6565b634e487b7160e01b600052604160045260246000fd5b0151905038806200026b565b6004600090815293507f8a35acfbc15ff81a39ae7d344fd709f28e8600b4aa8c65c6b64bfe7fe36bd19b91905b601f1984168510620005e6576001945083601f19811610620005cc575b505050811b0160045562000281565b015160001960f88460031b161c19169055388080620005bd565b81810151835560209485019460019093019290910190620005a0565b60046000529091507f8a35acfbc15ff81a39ae7d344fd709f28e8600b4aa8c65c6b64bfe7fe36bd19b601f840160051c8101602085106200066c575b90849392915b601f830160051c820181106200065c57505062000252565b6000815585945060010162000644565b50806200063e565b91607f16916200023c565b015190503880620001e1565b600260009081529350600080516020620025d483398151915291905b601f1984168510620006ed576001945083601f19811610620006d3575b505050811b01600255620001f7565b015160001960f88460031b161c19169055388080620006c4565b81810151835560209485019460019093019290910190620006a7565b6002600052909150600080516020620025d4833981519152601f840160051c81016020851062000762575b90849392915b601f830160051c8201811062000752575050620001c8565b600081558594506001016200073a565b508062000734565b91607f1691620001b2565b01519050388062000177565b600160009081529350600080516020620025f483398151915291905b601f1984168510620007e3576001945083601f19811610620007c9575b505050811b016001556200018d565b015160001960f88460031b161c19169055388080620007ba565b818101518355602094850194600190930192909101906200079d565b6001600052909150600080516020620025f4833981519152601f840160051c81016020851062000858575b90849392915b601f830160051c82018110620008485750506200015e565b6000815585945060010162000830565b50806200082a565b91607f169162000148565b600080fd5b6040519190601f01601f191682016001600160401b038111838210176200055157604052565b919080601f840112156200086b5782516001600160401b0381116200055157602090620008cc601f8201601f1916830162000870565b928184528282870101116200086b5760005b818110620008f457508260009394955001015290565b8581018301518482018401528201620008de565b51906001600160a01b03821682036200086b5756fe6080604081815260048036101561001557600080fd5b60009283358060e01c91826301ffc9a71461150457508163248a9ca3146114da578163290f000a146112965781632f2ff15d1461123557816336568abe146111a3578163430ca46f146110fd5781636904c94d14610d765781637754305c14610cbc578163835fab8414610bf757848263917a1fba14610a1c5750816391d14854146109d7578163a0712d68146108cd578163a217fddf146108ad578163afcdd813146107a1578163c1e8b268146104a4578163d547741f14610466578163e2543d1c1461030e575063ed91f1d0146100ed57600080fd5b3461030a578260031936011261030a577f0ce23c3e399818cfee81a7ab0880f714e53d7672b08df0fa62f2843416e1ea099182600052602092600084528160002033600052845260ff826000205416156101565784610150600e54600654611aaf565b60065580f35b61015f33611af9565b90825161016b816115cb565b604281528581019160603684378151156102f5576030835381516001908110156102e057607860218401536041905b80821161027357505061024457604861021793859361022693610240975196879376020b1b1b2b9b9a1b7b73a3937b61d1030b1b1b7bab73a1604d1b8c8601526101ee8c82519283916037890191016116f1565b8401917001034b99036b4b9b9b4b733903937b6329607d1b6037840152518093868401906116f1565b010360288101855201836115e7565b5193849362461bcd60e51b85528401526024830190611714565b0390fd5b606485878087519262461bcd60e51b84528301526024820152600080516020611c418339815191526044820152fd5b9091600f811660108110156102cb576f181899199a1a9b1b9c1cb0b131b232b360811b901a6102a28486611ad2565b53871c9180156102b657600019019061019a565b601188634e487b7160e01b6000525260246000fd5b603289634e487b7160e01b6000525260246000fd5b603287634e487b7160e01b6000525260246000fd5b603286634e487b7160e01b6000525260246000fd5b8280fd5b82848660203660031901126104635782359382519063ffffffff60e01b1660208201523360601b602482015284603882015260388152606081019080821067ffffffffffffffff83111761044e57818452600c5460085463938c054f60e01b60808401908152859485946001600160a01b0394851694929391926103ae9261039c9183911660848201611bf6565b03607f1981018352605f1901826115e7565b519134905af13d15610449573d6103c481611739565b906103d1855192836115e7565b81528260203d92013e5b61040957505163450226b360e01b815233918101918252346020830152604082019290925281906060010390fd5b8151338152346020820152604081018590527f87f5b2fe112bf269d30fb8ca9dc0bde0afd0cc39258e13fafd75fe794795bf0e9080606081015b0390a180f35b6103db565b604185634e487b7160e01b6000525260246000fd5b80fd5b5050903461030a578060031936011261030a576104a1913561049c600161048b611559565b938387528660205286200154611931565b611a3b565b80f35b849391503461079d57602092836003193601126107995780359167ffffffffffffffff831161079557366023840112156107955782820135906104e682611739565b936104f3865195866115e7565b82855287878601916024943686828401011161030a5780868b93018537870101527f5ebb184165085ace46d0999c321c0aa1dff31a8e7036d770713c0c15c094d3ed80600052600088528660002033600052885260ff8760002054161561060f5750859492879492610592926105836105c5995196879363ffffffff60e01b1689850152518092858501906116f1565b810103838101855201836115e7565b600954600a548551631789cd6360e01b81529687946001600160a01b039384169486948c94869493929116908401611bf6565b03925af190811561060657506105d9578280f35b813d83116105ff575b6105ec81836115e7565b810103126105fa5781808280f35b600080fd5b503d6105e2565b513d85823e3d90fd5b8484888a9361061d33611af9565b908251610629816115cb565b604281528681019160603684378151156107815760308353815160019081101561076d57607860218401536041905b8082116107025750506106d4576048610240959385936106bc936106ad975197889376020b1b1b2b9b9a1b7b73a3937b61d1030b1b1b7bab73a1604d1b8d8601526101ee8d82519283916037890191016116f1565b010360288101865201846115e7565b5194859462461bcd60e51b8652850152830190611714565b60648688878188519362461bcd60e51b8552840152820152600080516020611c418339815191526044820152fd5b9091600f81166010811015610759576f181899199a1a9b1b9c1cb0b131b232b360811b901a6107318486611ad2565b53881c918015610745576000190190610658565b8760118a634e487b7160e01b600052526000fd5b8860328b634e487b7160e01b600052526000fd5b86603289634e487b7160e01b600052526000fd5b85603288634e487b7160e01b600052526000fd5b8580fd5b8480fd5b8380fd5b505082346104635782600319360112610463576107bc61156f565b602435906107c8611755565b338352602091600f8352858420908154818110156000146108135733808752600f8652888720548951633db7aa8160e21b8152808a0192835260208301919091529081906040010390fd5b61086e93889361082587948a94611c1b565b9055600354338852600f845284882054855163a9059cbb60e01b81526001600160a01b039384169481019485526020850191909152958693919092169183918991839160400190565b03925af1908115610606575061088357505080f35b816108a292903d106108a6575b61089a81836115e7565b810190611c28565b5080f35b503d610890565b505050346108c957816003193601126108c95751908152602090f35b5080fd5b828585346108c95760203660031901126108c9578235916108ec611755565b6006548381101561090e578251630f6e5aa560e11b8152808601859052602490fd5b9361091a848396611c1b565b600655338252600f602052828220610933858254611aaf565b90556003546001600160a01b0316803b1561030a5783516340c10f1960e01b81523092810192835260208301869052918391839182908490829060400103925af180156109cd576109b9575b50505133815260208101919091527f0f6798a560793a54c3bcfe86a93cde1e73087d944c0ea20544137d4121396885908060408101610443565b6109c290611585565b61030a57828461097f565b83513d84823e3d90fd5b50503461030a578160031936011261030a57816020936109f5611559565b92358152808552209060018060a01b0316600052825260ff81600020541690519015158152f35b80848634610bf35780600319360112610bf357610a3761156f565b91610a40611559565b92610a49611755565b60018060a01b0380911693816bffffffffffffffffffffffff60a01b9186836008541617600855168091600a541617600a557f0ce23c3e399818cfee81a7ab0880f714e53d7672b08df0fa62f2843416e1ea0980600052602091600083528560002081600052835260ff86600020541615610ba4575b50507fc5e2d1653feba496cf5ce3a744b90ea18acf0df3d036aba9b2f85992a14679069081600052600081528460002086600052815260ff85600020541615610b54575b5050600d541692833b156107995760248592838551968794859363180b7a4f60e11b85528401525af1908115610b4b5750610b3b5750f35b610b4490611585565b6104635780f35b513d84823e3d90fd5b81600052600081528460002090866000525283600020600160ff198254161790558433917f2f8788117e7eff1d82e926ec794901d17c78024a50270940304540a733656f0d600080a48680610b03565b81600052600083528560002081600052835285600020600160ff1982541617905533917f2f8788117e7eff1d82e926ec794901d17c78024a50270940304540a733656f0d600080a48780610abf565b5050fd5b505050346108c95760203660031901126108c957610c1361156f565b610c1b611755565b7f5ebb184165085ace46d0999c321c0aa1dff31a8e7036d770713c0c15c094d3ed91826000526000602052806000209160018060a01b0316918260005260205260ff81600020541615610c6c578380f35b8260005260006020528060002082600052602052600020600160ff1982541617905533917f2f8788117e7eff1d82e926ec794901d17c78024a50270940304540a733656f0d600080a43880808380f35b83853461046357806003193601126104635750610cd7611609565b90805190610ce4826115af565b60158083526020927468747470733a2f2f697066732e696f2f697066732f60581b8482015283835195869260005b858110610d5f5750509282603592610d3d610d5b979685610d4c9701600081528151938492016116f1565b810103908101875201856115e7565b51928284938452830190611714565b0390f35b818101840151898201850152889450879301610d12565b5050913461046357806003193601126104635750610d92611609565b9181519060009360025460019581871c9187811680156110f3575b6020841081146110e05783875286929181156110c15750600114611060575b610dd8925003846115e7565b600354845183546001600160a01b0392831693919080891c906000908a81168015611056575b6020841081146110435783855284929181156110245750600114610fc6575b610e29925003826115e7565b865194600090600554808b1c918b8216908115610fbc575b602084108214610fa95750828952908115610f825750600114610f25575b509085889594939203610e7290876115e7565b6006549560075484600854169085600954169286600a54169487600b54169688600c541698600d541699600e549b519e8f9e8f936101c08086528501610eb791611714565b8481036020860152610ec891611714565b9201528c810360608e0152610edc91611714565b8b810360808d0152610eed91611714565b9860a08b015260c08a015260e08901526101008801526101208701526101408601526101608501526101808401526101a08301520390f35b905060056000527f036b6384b5eca791c62761152d0c79bb0604c104a5fb6f4eb0703f3154bb3db0986000995b828b10610f6c575097988998508601602001905085610e5f565b81818c6020809454918c010152019a0199610f52565b60ff19166020808a0191909152999a508a9991151560051b88019091019150869050610e5f565b634e487b7160e01b855260229052602484fd5b92607f1692610e41565b50600087815290918a7f8a35acfbc15ff81a39ae7d344fd709f28e8600b4aa8c65c6b64bfe7fe36bd19b5b82841061100a57505050906020610e2992820101610e1d565b6020929450805483858801015201910190918a8493610ff1565b60209250610e2994915060ff191682840152151560051b820101610e1d565b634e487b7160e01b835260228952602483fd5b92607f1692610dfe565b509060026000527f405787fa12a823e0f2b7631cc41b3ba8828b3321ca811111fa75cd3aa3bb5ace90876000925b8284106110a757505050906020610dd892820101610dcc565b6020929450805483858a010152019101909187869361108e565b60209250610dd894915060ff191682840152151560051b820101610dcc565b634e487b7160e01b835260228652602483fd5b92607f1692610dad565b929190503461079d578360031936011261079d576111679260209183519163ffffffff60e01b1683830152808252611134826115af565b6009546008548551631789cd6360e01b81529687946001600160a01b039384169486948b94869493929116908401611bf6565b03925af1908115610b4b575061117b575080f35b602090813d811161119c575b61119181836115e7565b810103126105fa5780f35b503d611187565b838584346108c957826003193601126108c9576111be611559565b90336001600160a01b038316036111da57906104a19135611a3b565b608490602085519162461bcd60e51b8352820152602f60248201527f416363657373436f6e74726f6c3a2063616e206f6e6c792072656e6f756e636560448201526e103937b632b9903337b91039b2b63360891b6064820152fd5b50503461030a578160031936011261030a573590611251611559565b908284528360205261126860018286200154611931565b600083815260208181528282206001600160a01b039094168083529390528190205460ff1615610c6c578380f35b919290503461079d57606036600319011261079d578235916044356024356112bc611755565b600354600b54855163095ea7b360e01b81526001600160a01b0391821689820190815260208082018a905292969391929183918290036040019082908d908a165af19081156114d05789916114b2575b506113395750505060649450600b5416905192630cc386e760e31b84528301523360248301526044820152fd5b8794878792610e109081860291868304148615171561149f578160075563ffffffff60e01b16968351918860208401523360601b6024840152603883015286605883015260588252608082019282841067ffffffffffffffff85111761148c575090889183855280600b5416908060035416906008541690823b15610799576395854b8160e01b8652608484015260a483015260c48201869052608060e4830152839182908490607f19906113f2610104820182611714565b0301925af1801561148257611444575b508051948552336020860152840152606083015260808201527f77a899b6d914cfb80b3509f1cb4918bbcc834fe214bff045c2c55ce0c19179799060a090a180f35b917f77a899b6d914cfb80b3509f1cb4918bbcc834fe214bff045c2c55ce0c19179799593919661147660a09694611585565b96919395509193611402565b82513d89823e3d90fd5b634e487b7160e01b8a5260419052602489fd5b634e487b7160e01b895260118352602489fd5b6114ca915060203d81116108a65761089a81836115e7565b3861130c565b86513d8b823e3d90fd5b50503461030a57602036600319011261030a57816020936001923581528085522001549051908152f35b935050503461030a57602036600319011261030a573563ffffffff60e01b811680910361030a5760209250637965db0b60e01b8114908115611548575b5015158152f35b6301ffc9a760e01b14905038611541565b602435906001600160a01b03821682036105fa57565b600435906001600160a01b03821682036105fa57565b67ffffffffffffffff811161159957604052565b634e487b7160e01b600052604160045260246000fd5b6040810190811067ffffffffffffffff82111761159957604052565b6080810190811067ffffffffffffffff82111761159957604052565b90601f8019910116810190811067ffffffffffffffff82111761159957604052565b60405190600060019081549182811c908084169384156116e7575b60209485841081146116d357838852879493929181156116b35750600114611657575b5050611655925003836115e7565b565b60008181527fb10e2d527612073b26eecdfd717e6a320cf44b4afac2b0732d9fcbe2b7fa0cf695935091905b81831061169b57505061165593508201013880611647565b85548884018501529485019487945091830191611683565b91505061165594925060ff191682840152151560051b8201013880611647565b634e487b7160e01b85526022600452602485fd5b91607f1691611624565b60005b8381106117045750506000910152565b81810151838201526020016116f4565b9060209161172d815180928185528580860191016116f1565b601f01601f1916010190565b67ffffffffffffffff811161159957601f01601f191660200190565b3360009081527fe298cb3514b0702cec56ac2053c1ecb2187cfdc8a325f22a672bc5027eadc9e2602090815260408083205490927fcab5a0bfe0b79d2c4b1c2e02599fa044d115b7511f9659307cb42769509677099160ff16156117b95750505050565b6117c233611af9565b918451906117cf826115cb565b6042825284820192606036853782511561191d576030845382519060019182101561191d5790607860218501536041915b8183116118af5750505061187f57604861024093869361186393611854985198899376020b1b1b2b9b9a1b7b73a3937b61d1030b1b1b7bab73a1604d1b8a8601526101ee815180928c6037890191016116f1565b010360288101875201856115e7565b5192839262461bcd60e51b845260048401526024830190611714565b60648486519062461bcd60e51b82528060048301526024820152600080516020611c418339815191526044820152fd5b909192600f81166010811015611909576f181899199a1a9b1b9c1cb0b131b232b360811b901a6118df8587611ad2565b5360041c9280156118f557600019019190611800565b634e487b7160e01b82526011600452602482fd5b634e487b7160e01b83526032600452602483fd5b634e487b7160e01b81526032600452602490fd5b600090808252602090828252604092838120338252835260ff84822054161561195a5750505050565b61196333611af9565b91845190611970826115cb565b6042825284820192606036853782511561191d576030845382519060019182101561191d5790607860218501536041915b8183116119f55750505061187f57604861024093869361186393611854985198899376020b1b1b2b9b9a1b7b73a3937b61d1030b1b1b7bab73a1604d1b8a8601526101ee815180928c6037890191016116f1565b909192600f81166010811015611909576f181899199a1a9b1b9c1cb0b131b232b360811b901a611a258587611ad2565b5360041c9280156118f5576000190191906119a1565b9060009180835282602052604083209160018060a01b03169182845260205260ff604084205416611a6b57505050565b80835282602052604083208284526020526040832060ff1981541690557ff6391f5c32d9c69d2a47ea670b442974b53935d1edc7fd64eb21e047a839171b339380a4565b91908201809211611abc57565b634e487b7160e01b600052601160045260246000fd5b908151811015611ae3570160200190565b634e487b7160e01b600052603260045260246000fd5b604051906060820182811067ffffffffffffffff82111761159957604052602a8252602082016040368237825115611ae357603090538151600190811015611ae357607860218401536029905b808211611b88575050611b565790565b606460405162461bcd60e51b81526020600482015260206024820152600080516020611c418339815191526044820152fd5b9091600f81166010811015611be1576f181899199a1a9b1b9c1cb0b131b232b360811b901a611bb78486611ad2565b5360041c918015611bcc576000190190611b46565b60246000634e487b7160e01b81526011600452fd5b60246000634e487b7160e01b81526032600452fd5b6001600160a01b039091168152604060208201819052611c1892910190611714565b90565b91908203918211611abc57565b908160209103126105fa575180151581036105fa579056fe537472696e67733a20686578206c656e67746820696e73756666696369656e74a26469706673582212201e401a49c7863ffc692ffd6b14abd04c1f383cd94292a5edf032c976becddf2864736f6c634300081400332f8788117e7eff1d82e926ec794901d17c78024a50270940304540a733656f0d405787fa12a823e0f2b7631cc41b3ba8828b3321ca811111fa75cd3aa3bb5aceb10e2d527612073b26eecdfd717e6a320cf44b4afac2b0732d9fcbe2b7fa0cf6a2646970667358221220cb8ef97ab9f48c1b6614e3b9b081ef81962c6c5d8f2d54d512db733c175ccc8364736f6c63430008140033",
    "linkReferences": {}
  },
  "methodIdentifiers": {
    "AGENT_ROLE()": "22459e18",
    "MASTER_ROLE()": "dc224863",
    "MINTER_ROLE()": "d5391393",
    "certifier()": "120c7efd",
    "getURI()": "7754305c",
    "newCompany(string,string,string,string,uint256,uint256,address)": "6f7fead0"
  },
  "id": 64
}